:020000021000EC
:10800000008000203D27020085270200872702000C
:108010000000000000000000000000000000000060
:10802000000000000000000000000000892702009E
:1080300000000000000000008B2702008D270200D6
:108040008F2702008F270200C94902008F270200F4
:108050008F270200000000005D3B02008F27020016
:108060008F2702008F2702008F2702008F27020030
:108070008F2702008F2702008F2702008F27020020
:108080008F2702000D9D01008F2702008F2702001D
:108090005D9D01008F2702006D6E02008F27020098
:1080A0008F2702008F270200000000000000000060
:1080B00000000000000000000000000000000000C0
:1080C00010B5064C2378002B07D1054B002B02D0AE
:1080D000044800E000BF0123237010BD4C240020A1
:1080E00000000000987A0200084B10B5002B03D066
:1080F0000749084800E000BF07480368002B00D18B
:1081000010BD064B002BFBD09847F9E7000000009C
:1081100050240020987A020048240020000000002B
:10812000164B002B00D1144B9D46402292029A1A06
:10813000924600218B460F461348144A121A0FF03C
:10814000A9F90F4B002B00D098470E4B002B00D005
:1081500098470020002104000D000D48002802D09F
:108160000C480FF0A7FA0FF0B9F82000290000F032
:108170000DFB0FF0A3F8C0460000080000800020AF
:1081800000000000000000004C240020802B002094
:10819000B5760200C576020080B582B000AF786087
:1081A000396006E07B68180000F03AF87B6801331C
:1081B0007B607A683B689A42F4D9C046BD4602B0FB
:1081C00080BD90B583B000AF78600C00100019003E
:1081D000FB1C221C1A70BB1C021C1A707B1C0A1C84
:1081E0001A70A023DB05FA1C1178BA1C1278520011
:1081F00011437A1C1278920011431822BA1812788F
:10820000120211431C22BA181278120411437A6820
:10821000C132FF329200D150C046BD4603B090BD7E
:1082200080B584B002AF78607868002301930023A2
:108230000093002301220121FFF7C3FFC046BD4682
:1082400002B080BD80B582B000AF78600800110038
:10825000FB1C021C1A70BB1C0A1C1A70FB1C1B782E
:108260007A68D318BA1C12781A70C046BD4602B09C
:1082700080BD80B582B000AF0200FB1D1A70BB1D2F
:108280000A1C1A70BB1D1A78FB1D1B7803481900C5
:10829000FFF7D8FFC046BD4602B080BD04050050C0
:1082A0002BDF7047C04618002CDF7047C04618000F
:1082B0002DDF7047C04618002EDF7047C0461800FB
:1082C0002FDF7047C046180030DF7047C0461800E7
:1082D00031DF7047C046180032DF7047C0461800D3
:1082E00033DF7047C046180034DF7047C0461800BF
:1082F00035DF7047C046180036DF7047C0461800AB
:1083000037DF7047C046180038DF7047C046180096
:1083100039DF7047C04618003ADF7047C046180082
:108320003DDF7047C04618003EDF7047C04618006A
:108330003BDF7047C04618003CDF7047C04618005E
:108340003FDF7047C046180040DF7047C046180046
:1083500041DF7047C046180042DF7047C046180032
:1083600043DF7047C046180044DF7047C04618001E
:1083700045DF7047C046180046DF7047C04618000A
:1083800047DF7047C046180049DF7047C0461800F5
:108390004ADF7047C04618004BDF7047C0461800E0
:1083A00048DF7047C046180020DF7047C0461800FD
:1083B00021DF7047C046180022DF7047C046180012
:1083C00023DF7047C046180024DF7047C0461800FE
:1083D00025DF7047C046180026DF7047C0461800EA
:1083E00027DF7047C04618004CDF7047C0461800B2
:1083F0004DDF7047C046180051DF7047C046180077
:1084000052DF7047C046180029DF7047C046180089
:1084100028DF7047C04618002ADF7047C0461800A2
:108420004EDF7047C04618004FDF7047C046180047
:1084300050DF7047C046180010DF7047C046180074
:1084400011DF7047C046180012DF7047C0461800A1
:1084500013DF7047C046180070DF7047C046180031
:1084600071DF7047C046180072DF7047C0461800C1
:1084700073DF7047C046180074DF7047C0461800AD
:1084800075DF7047C046180076DF7047C046180099
:1084900077DF7047C046180078DF7047C046180085
:1084A00079DF7047C04618007ADF7047C046180071
:1084B0007BDF7047C04618007CDF7047C04618005D
:1084C0007DDF7047C04618007EDF7047C046180049
:1084D0007FDF7047C046180080DF7047C046180035
:1084E00081DF7047C046180082DF7047C046180021
:1084F00083DF7047C046180084DF7047C04618000D
:1085000085DF7047C04618008ADF7047C0461800F4
:1085100086DF7047C046180087DF7047C0461800E6
:1085200088DF7047C046180089DF7047C0461800D2
:10853000B0DF7047C0461800B1DF7047C046180072
:10854000B2DF7047C046180090DF7047C046180081
:1085500091DF7047C046180092DF7047C046180090
:1085600093DF7047C046180094DF7047C04618007C
:1085700095DF7047C046180096DF7047C046180068
:1085800097DF7047C046180098DF7047C046180054
:10859000A0DF7047C0461800A1DF7047C046180032
:1085A000A2DF7047C0461800A3DF7047C04618001E
:1085B000A4DF7047C0461800A5DF7047C04618000A
:1085C000A6DF7047C0461800A7DF7047C0461800F6
:1085D000A8DF7047C0461800A9DF7047C0461800E2
:1085E000AADF7047C046180060DF7047C046180019
:1085F00061DF7047C046180062DF7047C046180050
:1086000063DF7047C046180064DF7047C04618003B
:1086100065DF7047C046180066DF7047C046180027
:1086200067DF7047C046180068DF7047C046180013
:1086300069DF7047C046180080B584B000AF78602D
:108640007B681B88102B02D0112B15D019E001205C
:1086500007F0F8F80300FB60FB68BB60BB68002B09
:1086600005D0BB6800220021180000F073FA7B6877
:108670009A88064B1A8004E0044B012252421A8069
:10868000C046C046BD4604B080BDC04604200020A0
:1086900080B582B000AF78607B68180009F074FB89
:1086A0007A680F4B1100180005F0A0FA7A680D4B9C
:1086B0001100180003F072FF7B68180004F0A6FC9C
:1086C0007B68180006F07CFB7B681800FFF7B4FF9E
:1086D0007B68180003F060FCC046BD4602B080BD58
:1086E000802400206824002080B582B000AF78602C
:1086F0007B6818000DF004F97B68180003F0F0FCAB
:10870000C046BD4602B080BD80B586B000AF1C49F2
:108710000023002208200EF027FB03007B617B6909
:108720003B613B69002B05D03B690022002118000A
:1087300000F010FA134B18000EF070FB0300FB6002
:10874000FB68BB60BB68002B05D0BB680022002122
:10875000180000F0FFF90C4B18000EF073FB03003B
:10876000FB60FB687B607B68002B05D07B68002288
:108770000021180000F0EEF9C046BD4606B080BDED
:10878000D024002091860100E986010080B500AF69
:10879000FFF7BAFF13211220FFF7FEFC0821022089
:1087A000FFF767FD502009F0F3FF04210220FFF7D7
:1087B00060FD502009F0ECFFF0E7C04690B589B0AD
:1087C00000AF78601F23FB1800221A7054E0304B72
:1087D0001A681F23FB181B78DB00D318BB61BB6929
:1087E0001B781A00012393407B612A4B1B687A692E
:1087F00013403AD07B69DA43264B1B681A40254B5D
:108800001A60BB691B781322BC1818000BF07AF9A8
:1088100003002370BB691B781A00012393401A00E0
:108820001D4B1B6813401322BA181278B9690978D6
:108830008A40934219D11323FB181B78BA695278E6
:10884000013A51424A41D2B29B1A5A425341DBB2D9
:10885000FB60BB695B68002B07D0BB695B68BA69CA
:108860001278F968C9B2100098471F23FB181A78CC
:108870001F23FB1801321A70084B1B781F22BA18ED
:1088800012789A42A3D3C046BD4609B090BDC046F7
:10889000D42400200425002000250020D824002016
:1088A00080B584B000AF78600A00FB1C1A7001220A
:1088B0007B689A401300FB601E4B180001F064FBBC
:1088C0000300BB60BB68002B30D11B4B1B68FA68F0
:1088D000134023D17B6818000BF014F9031E06D057
:1088E000164B1A68FB681A43144B1A6006E0FB68C3
:1088F000DA43124B1B681A40104B1A600E4B1A6871
:10890000FB681A430C4B1A600A480D4B1B68002287
:10891000190001F0FFFA0300BB6008E0FB68DA43CE
:10892000054B1B681A40044B1A6000E0C046BD4668
:1089300004B080BDE0240020042500200025002094
:10894000DC24002080B588B000AFF8607A600B238B
:10895000FB180A1C1A707B68042B01D807235FE000
:108960000AF036FE03001A0001235340DBB2002B4D
:1089700008D00AF0EBFD0300FB61FB69002B01D07E
:10898000FB694DE0284BFA681A60284B0B22BA1895
:1089900012781A70264B7A681A60264B00221A60E9
:1089A000254B00221A602BE00B23FB181B78DB0001
:1089B000FA68D318BB611423FB1803221A7014231E
:1089C000FB1800225A701423FB1800229A701423FB
:1089D000FB180022DA70BB699A781423FB185A70CE
:1089E000BB691B781800154A1423FB1819000AF0FC
:1089F00043FF0300FB61FB69002B01D0FB690FE023
:108A00000B23FB181B780B22BA18591E1170002B70
:108A1000CAD10B4A0B4B0021180001F02BFA0300BE
:108A20001800BD4608B080BDD4240020D824002002
:108A3000DC2400200025002004250020A18801005E
:108A4000BD8701003078020080B582B000AF0023FE
:108A50007B600CE00B4B1A687B68DB00D3181B783B
:108A6000012118000AF070FF7B6801337B60064B20
:108A70001B781A007B689A42ECD800231800BD4688
:108A800002B080BDD4240020D824002080B582B05C
:108A900000AF00237B600BE00D4B1A687B68DB00A6
:108AA000D3181B7818000AF0D7FF7B6801337B606E
:108AB000084B1B781A007B689A42EDD8064B1800C9
:108AC00001F062FA03001800BD4602B080BDC04646
:108AD000D4240020D8240020E024002090B585B0C4
:108AE00000AF02003960FB1D1A70124B1A68FB1DA3
:108AF0001B78DB00D318FB60FB681B780B22BC18CB
:108B000018000AF0FFFF030023700B23FB181B78EB
:108B1000FA685278013A51424A41D2B29B1A5A42FB
:108B20005341DAB23B681A7000231800BD4605B005
:108B300090BDC046D424002080B500AFBFF34F8F56
:108B4000024B034ADA60BFF34F8FFEE700ED00E00F
:108B50000400FA0580B584B000AFF860B9607A60AF
:108B6000FFF7EAFFC046BD4604B080BD80B584B0C3
:108B700000AF78607B689B68FB607B68DA68FB68A5
:108B8000D31A1800BD4604B080BD80B582B000AFD6
:108B900078600A00FB1C1A707B681A687B68DB68C7
:108BA000796889880B40D318FA1C12781A707B6890
:108BB000DB685A1C7B68DA60C046BD4602B080BDE7
:108BC00080B582B000AF786039607B681A687B68D6
:108BD0009B68796889880B40D3181A783B681A70AB
:108BE0007B689B685A1C7B689A60C046BD4602B091
:108BF00080BD80B584B000AFF860B960BB1D1A803D
:108C0000BB68002B01D10E231CE0BB1D1B88002B71
:108C100006D0BB1D1B88013BBA1D1288134001D032
:108C200009230FE0FB68BA681A60BB1D1B88013B73
:108C30009AB2FB689A80FB6800229A60FB68002267
:108C4000DA6000231800BD4604B080BD80B582B054
:108C500000AF78600A00FB1C1A707B681800FFF7F1
:108C600085FF02007B689B889A4208D8FB1C1A7813
:108C70007B6811001800FFF788FF002300E0042341
:108C80001800BD4602B080BD80B582B000AF7860EC
:108C900039607B681800FFF769FF031E07D03A6848
:108CA0007B6811001800FFF78BFF002300E005230D
:108CB0001800BD4602B080BD80B582B000AF7860BC
:108CC0007B68DA687B689A6000231800BD4602B0B2
:108CD00080BD80B588B000AFF860B9607A60FB688D
:108CE000002B01D10E233CE07B68002B01D10E2329
:108CF00037E0FB681800FFF739FF03007B617B68F2
:108D00001B683B610023FB610023BB617B687A69C0
:108D10001A607B69002B01D1052322E0BB68002B80
:108D200004D17B687A691A6000231AE03A697B698A
:108D30009A4202D23B69BB6101E07B69BB61FB697E
:108D40005A1CFA61BA68D218FB6811001800FFF7C4
:108D500037FFFA69BB699A42F1D37B68BA691A6036
:108D600000231800BD4608B080BD90B589B000AFA3
:108D7000F860B9607A60FB68002B01D10E2342E0F5
:108D80007B68002B01D10E233DE0FB689B881C0013
:108D9000FB681800FFF7EAFE0300E31A01337B616A
:108DA0007B681B683B610023FB610023BB617B6820
:108DB0007A691A607B69002B01D1042323E0BB6828
:108DC000002B04D17B687A691A6000231BE03A69A2
:108DD0007B699A4202D23B69BB6101E07B69BB615E
:108DE000FB695A1CFA61BA68D3181A78FB6811003B
:108DF0001800FFF7CAFEFA69BB699A42F0D37B6894
:108E0000BA691A6000231800BD4609B090BD80B54C
:108E100082B000AF78607B68032213405A4253410E
:108E2000DBB21800BD4602B080BD000080B582B044
:108E300000AF0200FB1D1A70064BFA1D12781100DC
:108E40001F220A40012191400A001A60C046BD4617
:108E500002B080BD00E100E080B582B000AF02004A
:108E6000FB1D1A70074AFB1D1B7819001F230B40BE
:108E7000012199400B0019008023D150C046BD4606
:108E800002B080BD00E100E080B582B000AF02001A
:108E9000FB1D1A70084AFB1D1B7819001F230B408D
:108EA000012199400B00190080235B00D150C0467E
:108EB000BD4602B080BDC04600E100E080B582B092
:108EC00000AF0200FB1D1A70084AFB1D1B78190039
:108ED0001F230B40012199400B001900C0235B00A8
:108EE000D150C046BD4602B080BDC04600E100E0A2
:108EF000B0B582B000AF02003960FB1D1A70FB1DD7
:108F00001B787F2B32D92F4CFB1D1B781A000F23A7
:108F10001340083B99082B4AFB1D1B7818000F23B0
:108F20000340083B9B0806339B00D31804331B689F
:108F3000FA1D1278100003220240D200FF20904058
:108F40000200D2431A403B689B01FF201840FB1DE2
:108F50001B781D0003232B40DB00984003001A43BD
:108F60008B1D9B00E31804331A6027E0164CFB1D91
:108F70001B785BB29B081449FA1D127852B2920812
:108F8000C03292005258F91D0978080003210140AF
:108F9000C900FF2088400100C94311403A6892018E
:108FA000FF201040FA1D1278150003222A40D2003B
:108FB000904002000A43C0339B001A51C046BD4690
:108FC00002B0B0BD00ED00E000E100E080B582B08D
:108FD00000AF0200FB1D1A70FB1D1B787F2B18D9F8
:108FE000174AFB1D1B7819000F230B40083B9B08F9
:108FF00006339B00D31804331A68FB1D1B78190035
:1090000003230B40DB00DA4013009B0903221340CB
:1090100012E00C4AFB1D1B785BB29B08C0339B001F
:109020009A58FB1D1B78190003230B40DB00DA4024
:1090300013009B09032213401800BD4602B080BDF7
:1090400000ED00E000E100E02BDF7047C0461800B3
:109050002CDF7047C04618002DDF7047C04618004F
:109060002EDF7047C04618002FDF7047C04618003B
:1090700030DF7047C046180031DF7047C046180027
:1090800032DF7047C046180033DF7047C046180013
:1090900034DF7047C046180035DF7047C0461800FF
:1090A00036DF7047C046180037DF7047C0461800EB
:1090B00038DF7047C046180039DF7047C0461800D7
:1090C0003ADF7047C04618003DDF7047C0461800C1
:1090D0003EDF7047C04618003BDF7047C0461800AF
:1090E0003CDF7047C04618003FDF7047C04618009D
:1090F00040DF7047C046180041DF7047C046180087
:1091000042DF7047C046180043DF7047C046180072
:1091100044DF7047C046180045DF7047C04618005E
:1091200046DF7047C046180047DF7047C04618004A
:1091300049DF7047C04618004ADF7047C046180034
:109140004BDF7047C046180048DF7047C046180024
:1091500020DF7047C046180021DF7047C046180066
:1091600022DF7047C046180023DF7047C046180052
:1091700024DF7047C046180025DF7047C04618003E
:1091800026DF7047C046180027DF7047C04618002A
:109190004CDF7047C04618004DDF7047C0461800CE
:1091A00051DF7047C046180052DF7047C0461800B4
:1091B00029DF7047C046180028DF7047C0461800F6
:1091C0002ADF7047C04618004EDF7047C0461800BF
:1091D0004FDF7047C046180050DF7047C046180088
:1091E00080B582B000AF0C4B5B68DB05DB0D7B60AC
:1091F0007B68002B0AD07B68103B3B603B685BB20E
:109200001800FFF7E3FE0300DBB200E004231800C0
:10921000BD4602B080BDC04600ED00E080B582B022
:1092200000AF78600649A123DB007A68CA500321A9
:109230001120FFF75DFEC046BD4602B080BDC046AE
:109240000010014080B582B000AF1749D1239B00C8
:1092500080225202CA501449C1239B00802252022C
:10926000CA501120FFF72AFE1120FFF7DFFD0E4B39
:1092700001221A602F237B607B6818000138C046EA
:10928000C046C046C046C046C046C046C046C046AE
:10929000C046C046C046F1D1044B01221A70C046F8
:1092A000BD4602B080BDC046001001402825002008
:1092B00080B582B000AF1120FFF7CEFD1F49D22349
:1092C0009B0080225202CA501C49C2239B0080226C
:1092D0005202CA50194B01225A602F237B607B68CF
:1092E00018000138C046C046C046C046C046C04609
:1092F000C046C046C046C046C046C046F1D10F4B2E
:1093000001229A600E4B00221A602F233B603B68BB
:1093100018000138C046C046C046C046C046C046D8
:10932000C046C046C046C046C046C046F1D1054B07
:1093300000221A70C046BD4602B080BD0010014038
:10934000142500202825002080B500AF024A034BD9
:10935000D3581800BD4680BD001001400405000030
:1093600080B582B000AF786039607A683B68D31A04
:109370001B021B0A1800BD4602B080BD80B582B03A
:1093800000AF78600449A823DB007A68CA50C04661
:10939000BD4602B080BDC0460010014080B586B019
:1093A00000AF7860284B1B68002B03D1264B7A68EE
:1093B0001A6045E07B681A68234B1B681B689A4259
:1093C00010D8214B1B68204A126811687A6812680D
:1093D0008A1A1A601C4B1A687B68DA611A4B7A6821
:1093E0001A602DE07B681B68FB60174B1B687B6174
:1093F000154B1B683B6109E03B691B68FA68D31A8F
:10940000FB603B697B613B69DB693B613B69002B2E
:1094100004D03B691A68FB689A42EDD33B69002B84
:1094200005D03B691A68FB68D21A3B691A607B68F1
:10943000FA681A607B683A69DA617B697A68DA618E
:10944000C046BD4606B080BD1025002080B586B060
:1094500000AF7860224B1B687B617B693B6108E051
:109460003A697B689A4208D03B697B613B69DB695A
:109470003B613B69002BF3D100E0C0463B69002B08
:1094800029D07A693B699A4211D1154B1B68DA6978
:10949000134B1A60124B1B68002B08D1114B012291
:1094A0009A60114B00221A60104B01221A703B691E
:1094B0001B68FB603B69DA697B69DA617B69DB69A0
:1094C0003B613B69002B07D03B691A68FB68D218E7
:1094D0003B691A6000E0C046BD4606B080BDC0468C
:1094E000102500200010014014250020292500200F
:1094F00080B500AF1120FFF7C7FCC046BD4680BD58
:1095000080B500AF1420FFF7BFFCC046BD4680BD4C
:1095100080B584B000AF7860114B1B68002B15D06C
:109520000F4B1A687B6858697B689B6919009047E4
:109530000300FB60FB68BB60BB68002B0CD0BB6802
:10954000002200211800FFF705FB05E07B685A693F
:109550007B689B6918009047C046BD4604B080BD3B
:109560002425002080B584B000AF2C4B1B68002B55
:1095700050D000237B60FFF7E7FE0200284B1B68FA
:1095800019001000FFF7ECFE0300BB60234B1B68C3
:10959000FB601EE0FB681A68BB689A421DD8FB6836
:1095A0001B68BA68D31ABB60FB681B687A68D3185B
:1095B0007B60FB683B60FB68DB69FB603B681B7C96
:1095C000002B06D03B6800221A743B681800FFF796
:1095D0009FFFFB68002BDDD100E0C046114B1A78DD
:1095E000114B1B789A420CD10F4B1B780133DAB226
:1095F0000D4B1A700C4B1B78022B02D10A4B002228
:109600001A70094B1B781A00084B92007968D150E8
:10961000FFF776FFC046BD4604B080BD1025002090
:1096200014250020202500202125002018250020B9
:1096300080B582B000AF7860184B1A78184B1B7851
:109640009A4223D0154B1B780133DAB2134B1A70B0
:10965000124B1B78022B02D1104B00221A700F4BB9
:109660001B781A000F4B9200D2587B681A607B68F7
:109670001A680D4B1B68D2180B4B1A600A4B1B68FB
:109680001B021A0A084B1A60012303E07B680022C0
:109690001A6000231800BD4602B080BD20250020BE
:1096A00021250020182500201425002080B586B033
:1096B00000AF364B1B683B611723FB18344A127806
:1096C0001A704EE0334B1A681723FB181B78DB0027
:1096D000D318FB601623FB18FA6812781A7039E069
:1096E000FB6859681623FB181A7813005B009B1857
:1096F000DB00CB18BB601623FB181A781623FB1867
:1097000001321A70FB689B781622BA1812789A42B6
:1097100003D11623FB1800221A70BB681B78022B9A
:1097200002D0032B10D014E0BB685B681800FFF771
:109730008DFE0FE0154B1B687B607B6800221A745E
:109740007B68DA69114B1A60104B1B68002BF1D152
:1097500000E0C046FB685B781622BA1812789A427D
:10976000BED11723FB181B781722BA18591E117087
:10977000002BA7D1054B1A683B69D31A5A1E934197
:10978000DBB21800BD4606B080BDC04610250020E3
:10979000082500200C25002080B588B000AFF860B7
:1097A000B9607A600023FB6138E0204B1B68BB6125
:1097B000BB691A68FB689A4206D9BB691A68FB68DC
:1097C000D21ABB691A602DE0BB691B68FA68D31A0C
:1097D000FB60BB691B68FA69D318FB61BB69002297
:1097E0001A60124B1B687B61BB69DA690F4B1A6008
:1097F000BB69DB68002B11D0BA68FB69D3181B0268
:109800001A0ABB695A60BB69DA68BB699A607B68EF
:109810001A68BB69DA617B687A691A60034B1B6856
:10982000002BC2D1C046BD4608B080BD1025002027
:1098300080B588B000AF78605C4B1B687B611F23EC
:10984000FB185B4A12781A709BE05A4B1A681F2368
:10985000FB181B78DB00D3183B6187E07B68002B8B
:1098600005D07B68BB61BB69DB697B603CE03B6921
:109870005A683B691B7819000B005B005B18DB0022
:10988000D318FB603B691B780133DAB23B691A706D
:109890003B691A783B699B789A4202D13B69002266
:1098A0001A70FB685B68BB61FB681B78012B5DD19C
:1098B000BB691B7C002B00D058E0FB689A68BB6931
:1098C0005A60FB68DA68BB699A60FB681A69BB6911
:1098D000DA60FB685A69BB699A61374B1B78002BC9
:1098E00002D0BB6900225A60BB695A68334B1B68BF
:1098F000D31A1B021B0A324A93420ED8BB695A681C
:109900002E4B1B6819001000FFF72AFD0200BB69EF
:109910009B68D218BB691A6018E0284B1A68BB69AB
:109920005B6819001000FFF71BFD0300BB60BB69FB
:109930009A68BB689A4206D9BB699A68BB68D21A12
:10994000BB691A6002E0BB6900221A60BB69002291
:109950005A60BB6900229A60BB6901221A74BB6914
:109960000022DA61BB691800FFF718FD7B68002B45
:1099700000D073E73B691A783B695B789A4200D064
:109980006CE71F23FB181B781F22BA18591E117091
:10999000002B00D059E7054B1A687B69D31A5A1E71
:1099A0009341DBB21800BD4608B080BD10250020F1
:1099B000082500200C250020292500201425002042
:1099C000FEFF7F0090B589B000AF7860334B1B6815
:1099D000002B5CD0314B1B681B68FB61FFF7B4FCAC
:1099E0000300BB612E4B1B687B617A69BB69110068
:1099F0001800FFF7B5FC030003333B61294B1B78CC
:109A000001225340DBB2002B01D0FFF71BFCFA69A7
:109A10003B69934200D213007A69D3187B617B695A
:109A20001B021B0A7B617B691800FFF7A7FCFFF78D
:109A30008BFC0300FB60BA69FB6811001800FFF79C
:109A40008FFC0300DC1CBA697B6911001800FFF76A
:109A500087FC03009C421CD9FFF776FC030018002A
:109A6000FFF78CFC2F23BB60BB6818000138C04691
:109A7000C046C046C046C046C046C046C046C046B6
:109A8000C046C046C046F1D1FFF732FD01E0FFF706
:109A90000FFCC046BD4609B090BDC0461025002051
:109AA000142500202825002090B587B000AF0023A2
:109AB0007B601E4B1B683B611D4B1B68FB600B23CF
:109AC000FC183B001800FFF7B3FD030023701723B9
:109AD000FC18FFF7EBFD030023700B23FB181B782A
:109AE000002B09D03B683A1D39691800FFF754FE76
:109AF0001723FB1801221A707B681800FFF798FEE5
:109B0000031E03D01723FB1801221A701723FB181A
:109B10001B78002B03D0FB681800FFF753FF054BA1
:109B200000221A70C046BD4607B090BD1425002023
:109B3000102500202925002080B582B000AF786074
:109B40000A00FB1C1A707B68FA1C12785A70C04617
:109B5000BD4602B080BD80B584B000AF786039608A
:109B60007B685A780F23FB1801321A707B689B7848
:109B70000F22BA1812789A4203D10F23FB18002241
:109B80001A707B681B780F22BA1812789A4201D19A
:109B9000002310E03B680F22BA1812781A707B6815
:109BA0005A687B685B7819000B005B005B18DB0070
:109BB000D318BB60BB681800BD4604B080BD000070
:109BC00080B586B000AFF860B9607A603B601C4B2E
:109BD0001A68FB68DB00D3181322BA1811001800AA
:109BE000FFF7B9FF03007B617B69002B01D10423E0
:109BF00022E07B6901221A707B69BA685A60FFF71C
:109C0000A3FB02007B699A607B697A68DA607B69F2
:109C10003A681A617B693A6A5A61094B1A68FB68AB
:109C2000DB00D2181323FB181B7819001000FFF774
:109C300083FFFFF765FC00231800BD4606B080BD1A
:109C40000C25002080B584B000AF78603960154BDA
:109C50001A687B68DB00D3180B22BA1811001800B1
:109C6000FFF779FF0300FB60FB68002B01D10423A1
:109C700014E0FB6802221A70FB683A685A60094BCC
:109C80001A687B68DB00D2180B23FB181B781900BD
:109C90001000FFF751FFFFF733FC00231800BD460B
:109CA00004B080BD0C25002080B584B000AF786082
:109CB000154B1A687B68DB00D3180B22BA18110009
:109CC0001800FFF748FF0300FB60FB68002B01D181
:109CD000042314E0FB6803221A70FB6800225A6018
:109CE000094B1A687B68DB00D2180B23FB181B7822
:109CF00019001000FFF720FFFFF702FC00231800F7
:109D0000BD4604B080BDC0460C25002080B500AF24
:109D1000114AA0235B000021D1500F4AA2235B000F
:109D20000021D1500C4AA4235B000021D1500A4AE3
:109D3000A6235B000021D150074A80235B0000214D
:109D4000D150054A82235B000021D150FFF70AFC65
:109D5000C046BD4680BDC0460010014080B500AF82
:109D6000FFF7A2FEC046BD4680BD000080B586B0AC
:109D700000AFF8607A603B600B23FB180A1C1A7076
:109D80007B681800FFF743F803001A0001235340D3
:109D9000DBB2002B01D007235AE07B68002B04D1F3
:109DA0002D4B00221A60072352E0FFF781FA2B4B5C
:109DB0003A681A602A4B03221A70274B7A681A6095
:109DC0007B6818337B6000237B6121E0224B1A689B
:109DD0007B69DB00D3183B613B6900221A703B6949
:109DE00000225A703B690B22BA1812789A703B69AC
:109DF0007A685A600B23FB181A7813005B009B18D3
:109E0000DB001A007B689B187B607B6901337B61F8
:109E10007B69022BDADD134B00221A60124B002201
:109E20001A70124B00221A701420FFF747F8032112
:109E30001420FFF75DF81420FEF7F8FFFB68180008
:109E4000FFF7ECF9FFF780FA0200094B1A600023D4
:109E50001800BD4606B080BD0C250020242500203A
:109E60000825002010250020202500202125002085
:109E70001425002080B586B000AFF8607A600B230F
:109E8000FB180A1C1A70154B1B68002B01D1082304
:109E90001FE07B68002B01D107231AE0FB68002B31
:109EA00001D1072315E0FB681B681B7C002B01D048
:109EB00008230EE0FB681B687B617B6900221A7433
:109EC0007B690B22BA1812785A747B697A685A61D6
:109ED00000231800BD4606B080BDC0460C250020FA
:109EE00080B582B000AFFFF77BF90300012B02D0F1
:109EF000032B03D005E000237B6005E001237B609A
:109F000002E002237B60C0467B681800BD4602B0B9
:109F100080BD000090B589B002AFF860B9607A608A
:109F2000FB687B61174B1B68002B01D1082324E0E1
:109F3000FB68002B01D108231FE0BB68042B01D86C
:109F400007231AE07B695B69002B01D1082314E029
:109F50007B695B7C012B01D1BB6800E000233B6186
:109F6000FFF7BEFF04003869BA6879697B6800931F
:109F700003002000FFF724FE03001800BD4607B0D1
:109F800090BDC0460C25002080B584B000AF78603D
:109F90007B68FB600F4B1B68002B01D1082314E08A
:109FA0007B68002B03D0FB685B69002B01D1082381
:109FB0000BE0FB6800221A74FFF792FF0200FB68B7
:109FC00019001000FFF73EFE03001800BD4604B064
:109FD00080BDC0460C25002080B500AF074B1B6834
:109FE000002B01D1082306E0FFF77AFF03001800D9
:109FF000FFF75AFE03001800BD4680BD0C25002067
:10A0000080B582B000AF7860FFF79EF902007B68F0
:10A010001A6000231800BD4602B080BD80B584B030
:10A0200000AFF860B9607A60BA68FB681100180088
:10A03000FFF796F902007B681A6000231800BD46FE
:10A0400004B080BD2BDF7047C04618002CDF70477E
:10A05000C04618002DDF7047C04618002EDF70473D
:10A06000C04618002FDF7047C046180030DF704729
:10A07000C046180031DF7047C046180032DF704715
:10A08000C046180033DF7047C046180034DF704701
:10A09000C046180035DF7047C046180036DF7047ED
:10A0A000C046180037DF7047C046180038DF7047D9
:10A0B000C046180039DF7047C04618003ADF7047C5
:10A0C000C04618003DDF7047C04618003EDF7047AD
:10A0D000C04618003BDF7047C04618003CDF7047A1
:10A0E000C04618003FDF7047C046180040DF704789
:10A0F000C046180041DF7047C046180042DF704775
:10A10000C046180043DF7047C046180044DF704760
:10A11000C046180045DF7047C046180046DF70474C
:10A12000C046180047DF7047C046180049DF704737
:10A13000C04618004ADF7047C04618004BDF704722
:10A14000C046180048DF7047C046180020DF70473F
:10A15000C046180021DF7047C046180022DF704754
:10A16000C046180023DF7047C046180024DF704740
:10A17000C046180025DF7047C046180026DF70472C
:10A18000C046180027DF7047C04618004CDF7047F4
:10A19000C04618004DDF7047C046180051DF7047B9
:10A1A000C046180052DF7047C046180029DF7047CC
:10A1B000C046180028DF7047C04618002ADF7047E5
:10A1C000C04618004EDF7047C04618004FDF70478A
:10A1D000C046180050DF7047C046180080B584B0F4
:10A1E00000AF78607B689B68FB607B68DA68FB681F
:10A1F000D31A1800BD4604B080BD000080B586B0FB
:10A2000000AF786039607B681B78012B3BD17B689D
:10A210005B681A78384B11001800FEF717FD030031
:10A220007B617B69002B0ED00C23FB1801221A7076
:10A230000C23FB187A695A60304B1B680C22BA1841
:10A240001000984710E02C4B1800FFF7C7FF0300E1
:10A25000012B09D10C23FB1800221A70274B1B6815
:10A260000C22BA1810009847234B1800FFF7B6FFCE
:10A270000200214B9B889A423AD8214B01211800B9
:10A280000AF036FA34E07B681B78022B0FD10C23DE
:10A29000FB1802221A707B68DA680C23FB185A60DC
:10A2A000164B1B680C22BA181000984720E07B68F8
:10A2B0001B78002B1CD1134A134B11001800FEF71A
:10A2C000E3FC031E04D10F4B012118000AF054F9DE
:10A2D0000D4B1800FFF782FF031E09D10C23FB185A
:10A2E00003221A70054B1B680C22BA1810009847FD
:10A2F000C046BD4606B080BD382500202C25002074
:10A3000034250020302500204825002090B58FB04E
:10A3100000AFF860B9607A601A00FB1C1A70404BFD
:10A320007A681A60BB68002B01D1072373E0BB6811
:10A330001968BB685B689AB23A4B1800FEF759FC83
:10A3400003007B637B6B002B01D07B6B63E0BB68FE
:10A350009968BB68DB689AB2334B1800FEF749FC7A
:10A3600003007B637B6B002B01D07B6B53E01423DA
:10A37000FB182E4A13CA13C313CA13C303CA03C359
:10A38000FB689A681423FB189A61FB681B795A1EB4
:10A390009341DBB21A001423FB181A751423FB181F
:10A3A000FA1C12781A77FB685B79002B01D00E2219
:10A3B00000E000221423FB185A75FB68DB781A00B2
:10A3C0001423FB189A60FB689B781A001423FB186F
:10A3D000DA60FB681B781A001423FB185A60FB68CC
:10A3E0005B781A001423FB181A60114A1423FB1817
:10A3F000110018000AF042F803007B637B6B002B0E
:10A4000001D07B6B07E00AF023FA0A4B0121180008
:10A410000AF06EF903001800BD460FB090BDC046AB
:10A420002C25002038250020482500203478020003
:10A43000FDA101003425002080B582B000AF0D4B96
:10A440001800FEF739FC03007B607B68002B01D00D
:10A450007B680BE0084B1800FEF72EFC03007B60C6
:10A460007B68002B01D07B6800E000231800BD460C
:10A4700002B080BD382500204825002080B584B07A
:10A4800000AF78600F4B1800FFF7A8FE02000D4BDD
:10A490009B889A420BD10C4B012118000AF028F935
:10A4A0000300FB60FB68002B01D0052306E07A68FF
:10A4B000044B11001800FEF7E7FB03001800BD462F
:10A4C00004B080BD382500203425002080B584B03C
:10A4D00000AF0200FB1D1A700D4BFA1D12781A70A6
:10A4E0000B4B012118000AF047F80300FB60FB68E2
:10A4F000112B08D1FB1D1A78064B11001800FEF72E
:10A50000A5FB0300FB60FB681800BD4604B080BDDE
:10A51000312500204825002080B500AF09F0EAFF72
:10A5200000231800BD4680BD70DF7047C04618008C
:10A5300071DF7047C046180072DF7047C0461800D0
:10A5400073DF7047C046180074DF7047C0461800BC
:10A5500075DF7047C046180076DF7047C0461800A8
:10A5600077DF7047C046180078DF7047C046180094
:10A5700079DF7047C04618007ADF7047C046180080
:10A580007BDF7047C04618007CDF7047C04618006C
:10A590007DDF7047C04618007EDF7047C046180058
:10A5A0007FDF7047C046180080DF7047C046180044
:10A5B00081DF7047C046180082DF7047C046180030
:10A5C00083DF7047C046180084DF7047C04618001C
:10A5D00085DF7047C04618008ADF7047C046180004
:10A5E00086DF7047C046180087DF7047C0461800F6
:10A5F00088DF7047C046180089DF7047C0461800E2
:10A60000B0DF7047C0461800B1DF7047C046180081
:10A61000B2DF7047C046180090DF7047C046180090
:10A6200091DF7047C046180092DF7047C04618009F
:10A6300093DF7047C046180094DF7047C04618008B
:10A6400095DF7047C046180096DF7047C046180077
:10A6500097DF7047C046180098DF7047C046180063
:10A66000A0DF7047C0461800A1DF7047C046180041
:10A67000A2DF7047C0461800A3DF7047C04618002D
:10A68000A4DF7047C0461800A5DF7047C046180019
:10A69000A6DF7047C0461800A7DF7047C046180005
:10A6A000A8DF7047C0461800A9DF7047C0461800F1
:10A6B000AADF7047C046180060DF7047C046180028
:10A6C00061DF7047C046180062DF7047C04618005F
:10A6D00063DF7047C046180064DF7047C04618004B
:10A6E00065DF7047C046180066DF7047C046180037
:10A6F00067DF7047C046180068DF7047C046180023
:10A7000069DF7047C046180080B582B000AF020014
:10A710003960BB1D1A80BB1D1B88DAB23B681A70FA
:10A720003B680133BA1D1288120A92B2D2B21A7073
:10A7300002231800BD4602B080BD80B586B000AFD0
:10A74000F860B9607A601A00BB1C1A807B681B88AD
:10A7500012331A00BB1C1B889A4201D90C2340E01B
:10A760007B681B881A00BB689B1811221A707B68D3
:10A770001B8801339AB27B681A807B681B881A0099
:10A78000BB689B1810221A707B681B8801339AB231
:10A790007B681A801723FB180F221A701BE07B6856
:10A7A0001B881A00BB689B181722BA18127852B27D
:10A7B000F9688A5C1A701723FB181B785BB2DBB24E
:10A7C000013BDAB21723FB181A707B681B88013330
:10A7D0009AB27B681A801723FB181B787F2BDED96F
:10A7E00000231800BD4606B080BD80B584B000AF20
:10A7F000B9607A6019000F23FB18021C1A700C2331
:10A80000FB180A1C1A807B681B88DA1C0C23FB18B7
:10A810001B889A4201D90C2350E07B681B881A00E0
:10A82000BB689B1802221A707B681B8801339AB29E
:10A830007B681A807B681B881A00BB689B181C22E7
:10A840001A707B681B8801339AB27B681A800F23C9
:10A85000FB181B78022B10D002DC012B05D024E062
:10A86000032B12D0042B18D01FE07B681B881A0022
:10A87000BB689B1800221A7019E07B681B881A00BD
:10A88000BB689B1801221A7011E07B681B881A00B4
:10A89000BB689B1802221A7009E07B681B881A00AB
:10A8A000BB689B1803221A7001E0072306E07B684F
:10A8B0001B8801339AB27B681A8000231800BD46BA
:10A8C00004B080BD80B588B000AFF860B960BB1D32
:10A8D0001A80BB681B8809331A00BB1D1B889A426B
:10A8E00001D90C2352E01423FB181800FFF720FEB7
:10A8F0000300FB61FB69002B01D0FB6946E0BB68EC
:10A900001B881A00FB689B1808221A70BB681B88FA
:10A9100001339AB2BB681A80BB681B881A00FB68B7
:10A920009B181B221A70BB681B8801339AB2BB6844
:10A930001A80BB681B881A00FB6898181423FB1840
:10A940000133062219000CF013FDBB681B88063387
:10A950009AB2BB681A801423FB181B78002B07D10E
:10A96000BB681B881A00FB689B1800221A7006E05F
:10A97000BB681B881A00FB689B1801221A70BB6811
:10A980001B8801339AB2BB681A8000231800BD46A9
:10A9900008B080BD80B588B000AFF860B9607A605B
:10A9A0001A00BB1C1A80FB681B78012B05D1FB68C1
:10A9B0005B78002B01D1072399E07B681B889A1CE8
:10A9C000BB1C1B889A420ED8FB681B78012B0CD14C
:10A9D0007B681B881A00FB685B78D3189A1CBB1C29
:10A9E0001B889A4201D90C2381E07B681B88BA1C22
:10A9F0001288D31A9AB21C23FB18023A1A80162323
:10AA0000FB181C22BA1812881A807B681B88023334
:10AA1000BA68D3181622BA1811001800FFF7B8FD4B
:10AA20000300BB61BB69002B01D0BB695FE0FB6821
:10AA30001B78022B0CD11623FB181B881C22BA187A
:10AA400012889A4204D31F23FB1809221A701CE0B3
:10AA50001F23FB1808221A70FB681B78012B0ED1EC
:10AA6000FB685B789BB21C22BA1812889A4206D304
:10AA7000FB685B789AB21623FB181A8005E0162350
:10AA8000FB181C22BA1812881A801623FB181B8880
:10AA9000FE2B01D90C232AE07B681B881A00BB68B7
:10AAA0009B181622BA181288D2B20132D2B21A708A
:10AAB0007B681B8801339AB27B681A807B681B888D
:10AAC0001A00BB689B181F22BA1812781A707B688C
:10AAD0001B8801339AB27B681A807B681A88162318
:10AAE000FB181B88D3189AB27B681A8000231800C1
:10AAF000BD4608B080BD80B586B000AFF860B960D3
:10AB0000BB1D1A80BB681B881A1DBB1D1B889A427F
:10AB100001D90C233BE01223FB181800FFF728FD96
:10AB200003007B617B69002B01D07B692FE0BB6850
:10AB30001B881A00FB689B1803221A70BB681B88CD
:10AB400001339AB2BB681A80BB681B881A00FB6885
:10AB50009B1819221A70BB681B8801339AB2BB6814
:10AB60001A801223FB181A88BB681B881900FB681F
:10AB70005B1819001000FFF7C7FD03001900BB6840
:10AB80001A888BB2D3189AB2BB681A8000231800B7
:10AB9000BD4606B080BD80B584B000AFB9607A60B4
:10ABA00019000F23FB18021C1A700C23FB180A1C37
:10ABB0001A807B681B88DA1C0C23FB181B889A42BE
:10ABC00001D90C2329E07B681B881A00BB689B18FD
:10ABD00002221A707B681B8801339AB27B681A8044
:10ABE0007B681B881A00BB689B1801221A707B685F
:10ABF0001B8801339AB27B681A807B681B881A0015
:10AC0000BB689B180F22BA1812781A707B681B88D1
:10AC100001339AB27B681A8000231800BD4604B045
:10AC200080BD80B584B000AFB9607A6019000F2391
:10AC3000FB18021C1A700C23FB180A1C1A807B6874
:10AC40001B88DA1C0C23FB181B889A4201D90C23A1
:10AC500029E07B681B881A00BB689B1802221A70C7
:10AC60007B681B8801339AB27B681A807B681B88DB
:10AC70001A00BB689B1811221A707B681B8801336D
:10AC80009AB27B681A807B681B881A00BB689B1885
:10AC90000F22BA1812781A707B681B8801339AB297
:10ACA0007B681A8000231800BD4604B080BD80B5C3
:10ACB00084B000AFB9607A6019000F23FB18021C42
:10ACC0001A700C23FB180A1C1A807B681B88DA1C7C
:10ACD0000C23FB181B889A4201D90C2329E07B68BE
:10ACE0001B881A00BB689B1802221A707B681B889D
:10ACF00001339AB27B681A807B681B881A00BB6894
:10AD00009B180A221A707B681B8801339AB27B68F1
:10AD10001A807B681B881A00BB689B180F22BA1820
:10AD200012781A707B681B8801339AB27B681A808C
:10AD300000231800BD4604B080BD80B58AB000AFC6
:10AD4000F860080011007B600B23FB18021C1A70CE
:10AD50000A23FB180A1C1A702323FB1800221A70FE
:10AD60002023FB183A6B12881A8000237B6281E053
:10AD7000FB685A687B6A9B00D3181022BA1810002F
:10AD8000190004231A000CF0F3FA1723F918102302
:10AD9000FB1800221800FFF7A3FC0300FB61FB690E
:10ADA000002B01D0FB698EE01723FB181B780A22C9
:10ADB000BA1812789A425AD12323FB181B78002B19
:10ADC00001D0002200E002221B23FB181A703B6B0B
:10ADD0001B881A001723FB181B78D2181B23FB189B
:10ADE0001B78D2183423FB181B889A4201DD0C23F0
:10ADF00069E02323FB181B7801225340DBB2002BB0
:10AE000018D03B6B1B8801339AB23B6B1A803B6BAB
:10AE10001B881A007B689B180B22BA1812781A70CC
:10AE20003B6B1B8801339AB23B6B1A802323FB18C0
:10AE300001221A703B6B1B881A007B689A18172333
:10AE4000F9181023FB181800FFF74AFC0300FB61F8
:10AE5000FB69002B01D0FB6935E03B6B1A88172397
:10AE6000FB181B789BB2D3189AB23B6B1A807B6A93
:10AE700001337B62FB681B881A007B6A9A4200DD03
:10AE800076E72323FB181B78002B1BD03B6B1A881B
:10AE90002023FB181B88D31A9AB21823FB18013AF7
:10AEA0001A801823FB181B88FF2B01D90C230AE0FA
:10AEB0002023FB181B887A68D3181822BA18128826
:10AEC000D2B21A7000231800BD460AB080BD80B50A
:10AED00088B002AFF860080011007B600B23FB18FC
:10AEE000021C1A700A23FB180A1C1A707A680B23BA
:10AEF000FB181978F8682423FB181B8801933B6A18
:10AF0000009313000222FFF718FF03007B617B69A7
:10AF1000002B01D07B6916E07A680A23FB181978A8
:10AF2000F8682423FB181B8801933B6A00931300E5
:10AF30001022FFF702FF03007B617B69002B01D029
:10AF40007B6900E000231800BD4606B080BD00000C
:10AF500080B582B000AF78607B681B88052B0AD96A
:10AF60007B681A88C8231B019A4206D97B681B8814
:10AF7000164A934201D0072323E07B685B88052BA8
:10AF80000AD97B685A88C8231B019A4206D97B6874
:10AF90005B880E4A934201D0072312E07B681B882E
:10AFA0000A4A93420CD07B685B88084A934207D0D8
:10AFB0007B681A887B685B889A4201D9072300E086
:10AFC00000231800BD4602B080BDC046FFFF000050
:10AFD00080B586B000AFF860B9607A601A00BB1C1B
:10AFE0001A807B681B889A1DBB1C1B889A4201D95A
:10AFF0000C234DE0FB681800FFF7AAFF03007B61FC
:10B000007B69002B01D07B6942E07B681B881A00BA
:10B01000BB689B1805221A707B681B8801339AB2A3
:10B020007B681A807B681B881A00BB689B181222F9
:10B030001A707B681B8801339AB27B681A80FB68A0
:10B040001A887B681B881900BB685B181900100000
:10B05000FFF75AFB030019007B681A888BB2D318DC
:10B060009AB27B681A80FB685A887B681B88190033
:10B07000BB685B1819001000FFF746FB03001900BE
:10B080007B681A888BB2D3189AB27B681A80002327
:10B090001800BD4606B080BD80B586B000AFF86030
:10B0A000B9607A601A00BB1C1A80FB689B88023367
:10B0B0007B617B681B881A007B69D3189A1CBB1CB8
:10B0C0001B889A4201D90C2354E07B69FE2B01D9DD
:10B0D0000C234FE07B681B881A00BB689B187A69B9
:10B0E000D2B20132D2B21A707B681B8801339AB295
:10B0F0007B681A807B681B881A00BB689B18FF223C
:10B100001A707B681B8801339AB27B681A80FB68CF
:10B110001A887B681B881900BB685B18190010002F
:10B12000FFF7F2FA030019007B681A888BB2D31874
:10B130009AB27B681A80FB689B88002B19D0FB6849
:10B140009B68002B01D1072314E07B681B881A0041
:10B15000BB689818FB689968FB689B881A000CF01C
:10B1600007F97B681A88FB689B88D3189AB27B68BA
:10B170001A8000231800BD4606B080BD80B588B097
:10B1800000AFF860B9607A601A00BB1C1A80FB68D7
:10B190009B6A002B01D1072377E01F23FB180022B5
:10B1A0001A7069E0FB68996A1F23FB181A7813006C
:10B1B0005B009B189B00CB18BB61BB699B8802336B
:10B1C0007B617B69FE2B01D90C235EE07B681B88C9
:10B1D0001A00BB689B187A69D2B20132D2B21A70D7
:10B1E0007B681B8801339AB27B681A807B681B8856
:10B1F0001A00BB689B1816221A707B681B880133E3
:10B200009AB27B681A80BB691A887B681B88190010
:10B21000BB685B1819001000FFF776FA03001900ED
:10B220007B681A888BB2D3189AB27B681A80BB6984
:10B230009B88002B19D0BB699B68002B01D1072389
:10B2400023E07B681B881A00BB689818BB69996863
:10B25000BB699B881A000CF08BF87B681A88BB6965
:10B260009B88D3189AB27B681A801F23FB181A7820
:10B270001F23FB1801321A70FB682C229B5C1F22D3
:10B28000BA1812789A428DD300231800BD4608B030
:10B2900080BD80B588B002AFF860B9607A600023E5
:10B2A0007B611223FB187A6812881A807B6800225F
:10B2B0001A80FB685B6B002B10D0FB685B6B187807
:10B2C0001223FB181B887A68B968FFF7AAFC0300F1
:10B2D0007B617B69002B01D07B6919E1FB681B6BEB
:10B2E000002B0FD0FB68186B1223FB181B887A68A1
:10B2F000B968FFF722FA03007B617B69002B01D05C
:10B300007B6905E1FB682E229B5C002B10D0FB685B
:10B310002E22985C1223FB181B887A68B968FFF705
:10B3200064FA03007B617B69002B01D07B69EFE04D
:10B33000FB682D229B5C002B0ED01223FB181A8871
:10B340007968BB681800FFF7BDFA03007B617B6971
:10B35000002B01D07B69DBE0FB689B78002B0ED0D3
:10B360001223FB181A887968BB681800FFF7C3FB23
:10B3700003007B617B69002B01D07B69C8E0FB681F
:10B38000DB78002B10D0FB68DB7858B21223FB1857
:10B390001B887A68B968FFF7FEFB03007B617B6955
:10B3A000002B01D07B69B3E0FB685B68002B11D0F8
:10B3B000FB685B68002018561223FB181B887A680C
:10B3C000B968FFF774FC03007B617B69002B01D037
:10B3D0007B699DE0FB681B89002B15D0FB68083357
:10B3E0001800BA681223FB181B8801937B6800932E
:10B3F000130006220221FFF76AFD03007B617B69CF
:10B40000002B01D07B6983E0FB681B8A002B15D0E1
:10B41000FB6810331800BA681223FB181B880193CD
:10B420007B680093130007220321FFF750FD030000
:10B430007B617B69002B01D07B6969E0FB681B8B1A
:10B44000002B15D0FB6818331800BA681223FB18BC
:10B450001B8801937B680093130015221421FFF7CA
:10B4600036FD03007B617B69002B01D07B694FE0D7
:10B47000FB681B6A002B0FD0FB68186A1223FB18AD
:10B480001B887A68B968FFF7A3FD03007B617B69BD
:10B49000002B01D07B693BE0FB685B6A002B0FD07F
:10B4A000FB68586A1223FB181B887A68B968FFF793
:10B4B000F3FD03007B617B69002B01D07B6927E0F2
:10B4C000FB682C229B5C002B0ED01223FB181B88E0
:10B4D0007A68B968F868FFF751FE03007B617B6901
:10B4E000002B01D07B6913E0FB681B78002B0ED08A
:10B4F0001223FB181B887A68B968F868FFF74AFAC4
:10B5000003007B617B69002B01D07B6900E07B69D4
:10B510001800BD4606B080BD80B582B000AF78602F
:10B520007B68DB781A000423134001D1072300E075
:10B5300000231800BD4602B080BD80B582B000AFC8
:10B5400078607B68DB78002B01D0072300E00023C4
:10B550001800BD4602B080BD80B596B000AF7860DF
:10B5600039604A23FB181F221A804823FB181F2228
:10B570001A807B68002B1DD07B681800FFF7CCFF7A
:10B580000300FB64FB6C002B01D0FB6C4CE04A23F6
:10B59000FA182823F9187B681800FFF77AFE0300D1
:10B5A000FB64FB6C002B01D0FB6C3DE02823FB18F7
:10B5B0007B6505E000237B654A23FB1800221A8087
:10B5C0003B68002B1DD03B681800FFF7B6FF030057
:10B5D000FB64FB6C002B01D0FB6C25E04823FA18C0
:10B5E0000823F9183B681800FFF753FE0300FB64BB
:10B5F000FB6C002B01D0FB6C16E00823FB183B65AD
:10B6000005E000233B654823FB1800221A804A23EB
:10B61000FB181B88D9B24823FB181B88DBB23A6D94
:10B62000786DFEF789FF03001800BD4616B080BD97
:10B6300070DF7047C046180071DF7047C0461800C1
:10B6400072DF7047C046180073DF7047C0461800AD
:10B6500074DF7047C046180075DF7047C046180099
:10B6600076DF7047C046180077DF7047C046180085
:10B6700078DF7047C046180079DF7047C046180071
:10B680007ADF7047C04618007BDF7047C04618005D
:10B690007CDF7047C04618007DDF7047C046180049
:10B6A0007EDF7047C04618007FDF7047C046180035
:10B6B00080DF7047C046180081DF7047C046180021
:10B6C00082DF7047C046180083DF7047C04618000D
:10B6D00084DF7047C046180085DF7047C0461800F9
:10B6E0008ADF7047C046180086DF7047C0461800E2
:10B6F00087DF7047C046180088DF7047C0461800D3
:10B7000089DF7047C0461800B0DF7047C046180098
:10B71000B1DF7047C0461800B2DF7047C04618005E
:10B7200090DF7047C046180091DF7047C046180090
:10B7300092DF7047C046180093DF7047C04618007C
:10B7400094DF7047C046180095DF7047C046180068
:10B7500096DF7047C046180097DF7047C046180054
:10B7600098DF7047C0461800A0DF7047C046180039
:10B77000A1DF7047C0461800A2DF7047C04618001E
:10B78000A3DF7047C0461800A4DF7047C04618000A
:10B79000A5DF7047C0461800A6DF7047C0461800F6
:10B7A000A7DF7047C0461800A8DF7047C0461800E2
:10B7B000A9DF7047C0461800AADF7047C0461800CE
:10B7C00060DF7047C046180061DF7047C046180050
:10B7D00062DF7047C046180063DF7047C04618003C
:10B7E00064DF7047C046180065DF7047C046180028
:10B7F00066DF7047C046180067DF7047C046180014
:10B8000068DF7047C046180069DF7047C0461800FF
:10B810002BDF7047C04618002CDF7047C046180069
:10B820002DDF7047C04618002EDF7047C046180055
:10B830002FDF7047C046180030DF7047C046180041
:10B8400031DF7047C046180032DF7047C04618002D
:10B8500033DF7047C046180034DF7047C046180019
:10B8600035DF7047C046180036DF7047C046180005
:10B8700037DF7047C046180038DF7047C0461800F1
:10B8800039DF7047C04618003ADF7047C0461800DD
:10B890003DDF7047C04618003EDF7047C0461800C5
:10B8A0003BDF7047C04618003CDF7047C0461800B9
:10B8B0003FDF7047C046180040DF7047C0461800A1
:10B8C00041DF7047C046180042DF7047C04618008D
:10B8D00043DF7047C046180044DF7047C046180079
:10B8E00045DF7047C046180046DF7047C046180065
:10B8F00047DF7047C046180049DF7047C046180050
:10B900004ADF7047C04618004BDF7047C04618003A
:10B9100048DF7047C046180020DF7047C046180057
:10B9200021DF7047C046180022DF7047C04618006C
:10B9300023DF7047C046180024DF7047C046180058
:10B9400025DF7047C046180026DF7047C046180044
:10B9500027DF7047C04618004CDF7047C04618000C
:10B960004DDF7047C046180051DF7047C0461800D1
:10B9700052DF7047C046180029DF7047C0461800E4
:10B9800028DF7047C04618002ADF7047C0461800FD
:10B990004EDF7047C04618004FDF7047C0461800A2
:10B9A00050DF7047C046180080B582B000AF7860A5
:10B9B0007B681B79002B03D17B681B7B002B01D09C
:10B9C000012300E000231800BD4602B080BD000046
:10B9D00080B500AF044B0722002118000BF05AFD80
:10B9E000C046BD4680BDC0465C25002080B584B001
:10B9F00000AF78600023FB600AE07A68FB68D31828
:10BA00001B78002B01D0012306E0FB680133FB60AB
:10BA1000FB68052BF1D900231800BD4604B080BD9A
:10BA200090B589B000AFF860B9607A603B60FB68A0
:10BA3000002B02D07B68002B01D10E23CDE0694B97
:10BA400000221A70684B3A681A60684B3A6B1A60A9
:10BA5000674B7A6813CA13C313CA13C313CA13C339
:10BA6000FFF7B6FF634B644A1A60624B634A9A6001
:10BA7000634B3822002118000BF00CFDFB681A788C
:10BA80005F4B1A70FB689A785D4B9A70FB68DA78A6
:10BA90005B4BDA70FB685A78594B5A70584BFA680E
:10BAA0001033103203CA03C3554BFA680833083207
:10BAB00003CA03C3524BFA681833183203CA03C3CC
:10BAC000FB685B6A002B29D04D4B4E4A5A624D4BA6
:10BAD0004D4A9A604A4B5A6AFB685B6A1B8813801E
:10BAE000474B5A6AFB685B6A9B8893800023FB6123
:10BAF0000DE0FB685B6A9A68FB69D3181978424AC3
:10BB0000FB69D3180A1C1A70FB690133FB613C4BBB
:10BB10005B6A9B881A00FB699A42EAD8FB689B6AB9
:10BB2000002B33D0394B3A4A9A60354B374A9A62E8
:10BB3000334B9B6A364A9A60314B9A6AFB689B6A20
:10BB40009B8893802E4B9A6AFB689B6A1B881380A4
:10BB50000023BB610DE0FB689B6A9A68BB69D31840
:10BB600019782B4ABB69D3180A1C1A70BB690133B8
:10BB7000BB61234B9B6A9B881A00BB699A42EAD837
:10BB8000FB682C22995C1E4B2C229954FB681B6A83
:10BB9000002B0ED01A4B1F4A1A62194B1A6AFB6807
:10BBA0001B6A5B885380164B1A6AFB681B6A1B88EA
:10BBB0001380FB685B68002B06D0114B164A5A6055
:10BBC000FB685A680E4B5A60BA680D4B110018009A
:10BBD000FFF7C2FC03007B617B691800BD4609B01A
:10BBE00090BDC046A8250020A0250020A425002047
:10BBF000AC250020D0250020E025002000260020D4
:10BC00006425002024260020302600205026002015
:10BC10005C2600207C2600208026002080B58AB08B
:10BC200000AF0200FB1D1A70C54BFA1D12781A7086
:10BC30000023BB600823FB1818000AF081FC0300F6
:10BC40007B627B6A082B02D10023BB6004E07B6A25
:10BC5000002B01D07B6A96E1BB68002B04D0B94B66
:10BC600001221A7000238EE1FFF7B2FEB64B5B781B
:10BC7000002B03D0B24B1B78012B07D0B24B9B7823
:10BC8000002B12D0AE4B1B78022B0ED1AF4B1B6892
:10BC9000002B07D0AE4B01221A70AC4B1B6808205A
:10BCA000984702E0AA4B00221A70A54B1B78012B83
:10BCB00014D1A54B5B7801225340DBB2002B0AD193
:10BCC000A44B1800FFF792FE03001A000123534013
:10BCD000DBB2002B02D09A4B02221A70984B1B78D1
:10BCE000022B14D1984B9B7801225340DBB2002BDE
:10BCF0000AD1984B1800FFF779FE03001A000123C0
:10BD00005340DBB2002B02D08D4B03221A708E4BB6
:10BD10001B7B01225340DBB2002B06D0884B1B78E3
:10BD2000032B02D1864B04221A70874B1B7E012203
:10BD30005340DBB2002B09D0814B1B78042B05D17B
:10BD40007F4B00221A70844B00221A707F4B1B68B5
:10BD5000002B1AD07A4B1B78032B03D0784B1B781F
:10BD6000042B12D1784B1B78002B0ED07B4B1B7809
:10BD700001225340DBB2002B07D0794B01221A700D
:10BD8000724B1B680720984702E0754B00221A701F
:10BD90000C23FB181822002118000BF07BFB0C234E
:10BDA000FB1800221A700C23FB1800225A600C2387
:10BDB000FB1800221A720C23FB180022DA60604B79
:10BDC0001B78022B1CD002DC012B05D0A8E0032B32
:10BDD0002ED0042B68D0A3E00C23FB18614A5A60D4
:10BDE0000C23FB1801221A700C23FB1800225A8224
:10BDF0000C23FB1800221A82574B01221A708FE085
:10BE00000C23FB18574A5A600C23FB1801221A70A6
:10BE10004D4B9B689AB20C23FB185A824A4B5B68C5
:10BE20009AB20C23FB181A824B4B02221A7077E04D
:10BE3000454B5B699AB20C23FB185A82424B1B6933
:10BE40009AB20C23FB181A82474B1800FFF7ACFD7F
:10BE5000031E25D03C4B1B78002B21D03F4B1B7879
:10BE600001225340DBB2002B1AD00C23FB18022214
:10BE70001A720C23FB183C4ADA603C4B0422DA703D
:10BE80003A4B00211800FFF767FB03007B627B6AD7
:10BE9000002B01D07B6A76E02F4B05221A703FE021
:10BEA0002D4B03221A703BE0274BDB699AB20C231F
:10BEB000FB181A82244B1B6A9AB20C23FB185A8275
:10BEC000294B1800FFF770FD031E25D01E4B1B7871
:10BED000002B21D0214B1B7801225340DBB2002BD9
:10BEE0001AD00C23FB1802221A720C23FB181E4ACC
:10BEF000DA601E4B0422DA701C4B00211800FFF799
:10BF00002BFB03007B627B6A002B01D07B6A3AE04B
:10BF1000114B06221A7002E00F4B04221A70C04621
:10BF2000074B1B78002B23D00C23FB181800FFF7BE
:10BF30008BFB03007B627B6A002B19D07B6A22E0BB
:10BF4000A825002058250020AC250020A025002091
:10BF5000222600205D2500209C2500202026002090
:10BF6000212600205C250020D0250020642500200B
:10BF7000074B1B68002B05D0054B1B68054A127840
:10BF80001000984700231800BD460AB080BDC04687
:10BF9000A02500209C25002080B586B000AF7860E9
:10BFA0007B681B88112B09D0192B25D0102B00D0B2
:10BFB00086E07B689A88444B1A8081E0434B0022DC
:10BFC0001A707B689A88404B1B889A4200D074E0B4
:10BFD0000120FFF723FE03007B617B69002B00D16A
:10BFE0006BE03B4B1B68002B00D166E0384B1B68B5
:10BFF0007A691000984760E07B689B79002B00D03D
:10C000005DE0344B1B78022B1AD002DC012B05D0EB
:10C0100052E0032B26D0042B39D04DE00220FFF74D
:10C02000FDFD03003B613B69002B3ED0284B1B68A4
:10C03000002B3AD0264B1B683A691000984734E031
:10C040000320FFF7EBFD0300FB60FB68002B2ED005
:10C050001F4B1B68002B2AD01D4B1B68FA68100071
:10C06000984724E01C4B03221A700420FFF7D6FDEA
:10C070000300BB60BB68002B1BD0154B1B68002B5B
:10C0800017D0134B1B68BA681000984711E0124B89
:10C0900000221A70114B1B68002B0CD00F4B1B6831
:10C0A0000D4A12781000984705E0C04607E0C046E8
:10C0B00005E0C04603E0C04601E0C04600E0C046DF
:10C0C000C046BD4606B080BD0620002020260020C8
:10C0D000A4250020A82500209C250020A0250020C4
:10C0E00080B584B000AF78600023FB607B68023BC2
:10C0F000012B1AD8104B1B78002B18D00E4B0022A6
:10C100001A700E4B1B781800FFF788FD0300FB60C8
:10C11000FB68002B0BD00A4B1B68002B07D0084B89
:10C120001B68FA681000984701E0C04600E0C0466E
:10C13000C046BD4604B080BD58250020A82500207B
:10C14000A425002080B584B000AF7860144B1B7824
:10C1500001225340DBB2002B01D008231BE07B6897
:10C160001A78104B1A700023FB600DE07A68FB68A8
:10C17000D318013319780B4AFB68D31801330A1C12
:10C180001A70FB680133FB60FB68052BEEDD044B86
:10C1900000221A7000231800BD4604B080BDC046BE
:10C1A000222600205C25002080B584B000AF786096
:10C1B000224B1B7801225340DBB2002B01D0082315
:10C1C00037E07B681A791E4B1A717B681A7B1C4B0F
:10C1D0001A730023FB600CE07B689A68FB689B0085
:10C1E000D3181968174BFA689200D150FB680133D5
:10C1F000FB60134B1B7B1A00FB689A42ECD80023B0
:10C20000FB600CE07B681A68FB689B00D318196818
:10C210000D4BFA689200D150FB680133FB60084B6C
:10C220001B791A00FB689A42ECD8044B00221A7062
:10C2300000231800BD4604B080BDC0462126002062
:10C24000D025002000260020E025002080B582B007
:10C2500000AF194B1B78002B29D0184B1B780122FB
:10C260005340DBB2002B22D0154B1B78002B08D09B
:10C27000FFF7EEF903007B607B68002B01D07B6841
:10C2800016E00E4B01221A700D4B1B781800FFF7B9
:10C29000C5FC03007B607B68002B08D0094B1B6842
:10C2A000002B04D0074B1B687A68100098470023C6
:10C2B0001800BD4602B080BDAC250020202600201D
:10C2C000A8250020A425002070DF7047C046180074
:10C2D00071DF7047C046180072DF7047C046180013
:10C2E00073DF7047C046180074DF7047C0461800FF
:10C2F00075DF7047C046180076DF7047C0461800EB
:10C3000077DF7047C046180078DF7047C0461800D6
:10C3100079DF7047C04618007ADF7047C0461800C2
:10C320007BDF7047C04618007CDF7047C0461800AE
:10C330007DDF7047C04618007EDF7047C04618009A
:10C340007FDF7047C046180080DF7047C046180086
:10C3500081DF7047C046180082DF7047C046180072
:10C3600083DF7047C046180084DF7047C04618005E
:10C3700085DF7047C04618008ADF7047C046180046
:10C3800086DF7047C046180087DF7047C046180038
:10C3900088DF7047C046180089DF7047C046180024
:10C3A000B0DF7047C0461800B1DF7047C0461800C4
:10C3B000B2DF7047C046180090DF7047C0461800D3
:10C3C00091DF7047C046180092DF7047C0461800E2
:10C3D00093DF7047C046180094DF7047C0461800CE
:10C3E00095DF7047C046180096DF7047C0461800BA
:10C3F00097DF7047C046180098DF7047C0461800A6
:10C40000A0DF7047C0461800A1DF7047C046180083
:10C41000A2DF7047C0461800A3DF7047C04618006F
:10C42000A4DF7047C0461800A5DF7047C04618005B
:10C43000A6DF7047C0461800A7DF7047C046180047
:10C44000A8DF7047C0461800A9DF7047C046180033
:10C45000AADF7047C046180060DF7047C04618006A
:10C4600061DF7047C046180062DF7047C0461800A1
:10C4700063DF7047C046180064DF7047C04618008D
:10C4800065DF7047C046180066DF7047C046180079
:10C4900067DF7047C046180068DF7047C046180065
:10C4A00069DF7047C046180080B582B000AF786081
:10C4B0007B681B781AB27B6801331B781B021BB2A6
:10C4C00013431BB29BB21800BD4602B080BD90B5AD
:10C4D00085B000AF78600E23FC187B681800FFF76A
:10C4E000E3FF030023800E23FB181B880122134067
:10C4F0005A1E9341DBB21800BD4605B090BD80B511
:10C5000082B000AF786039603B689A887B685A8255
:10C51000C046BD4602B080BD80B582B000AF786035
:10C5200039607B68012252425A82C046BD4602B041
:10C5300080BD80B584B000AF786039607B681B7DBA
:10C54000002B27D03B680633FB60FB681A887B68AA
:10C550005B899A421ED1FB681B8B022B1AD17B6828
:10C560001B68002B16D0FB681A331800FFF7AFFFCB
:10C57000031E04D00823FB1800221A7003E00823CE
:10C58000FB1801221A707B681B680822B9187A68A8
:10C5900010009847C046BD4604B080BD80B582B04B
:10C5A00000AF786039607B68002B20D03B68002B9F
:10C5B0001DD03B681B88112B0BD0502B10D0102B9B
:10C5C00000D015E03A687B6811001800FFF797FF6C
:10C5D0000EE03A687B6811001800FFF79DFF07E046
:10C5E0003A687B6811001800FFF7A3FF00E0C0461F
:10C5F000BD4602B080BD000090B595B000AF786038
:10C6000039607B681B7D002B26D02823FB18032272
:10C61000002118000AF03EFF2823FB181A780F218A
:10C620008A43111C01220A431A702823FB181A7826
:10C630000F210A40111C10220A431A702823FB18EC
:10C640003A68527B5A702823FB189A7806218A434D
:10C65000111C02220A439A702C23FB181C22002171
:10C6600018000AF017FF2C23FB181A7802210A433E
:10C670001A707B681A7D2C23FB1801210A401001D7
:10C680001A7810218A43111C021C0A431A702C23A9
:10C69000FB1800225A602C23FB180022DA602C239E
:10C6A000FB1800221A617B681B7D002B02D0282317
:10C6B000FA1800E000222C23FB185A612C23FB18E7
:10C6C00000229A611023FB1801229A701023FB1894
:10C6D000784A1A800C23FB180322002118000AF064
:10C6E000D9FE0C23FB183A68927B1A700C23FB18B6
:10C6F0003A68D27B5A700C23FB189A7806218A4339
:10C70000111C02220A439A700C23FB189A78082104
:10C710008A439A700C23FB189A7810218A439A70E6
:10C720000C23FB189A7801218A439A703B681A7B84
:10C730000B23FB181A701423FB1814220021180075
:10C740000AF0A8FE1423FB181022BA181A6014234A
:10C75000FB180C22BA185A601423FB1801221A8104
:10C760001423FB1800225A811423FB1801229A81FA
:10C770001423FB180B22BA181A617B6898887B680F
:10C7800006331422BA182C217918FFF741FE030052
:10C79000FB64FB6C002B01D0FB6C87E03B689B6863
:10C7A000002B00D17EE01023FB1801229A70102389
:10C7B000FB18414A1A800C23FB18032200211800A1
:10C7C0000AF068FE0C23FB183A68127C1A700C23DE
:10C7D000FB185A780F218A435A700C23FB185A7899
:10C7E0000F210A405A700C23FB189A7806218A43BD
:10C7F000111C02220A439A700C23FB189A78082114
:10C800008A439A700C23FB189A7810218A439A70F5
:10C810000C23FB189A7801218A439A703B689A6826
:10C820004B23FC180823FB181100180001F046FEEA
:10C83000030023701423FB181422002118000AF0AF
:10C8400029FE1423FB181022BA181A601423FB18AF
:10C850000C22BA185A604B23FB181B789AB2142387
:10C86000FB181A811423FB1800225A811423FB1889
:10C870001A891423FB189A811423FB180822BA186A
:10C880001A617B68D8887B680E331A001423FB1862
:10C890001900FFF7C1FD0300FB64FB6C002B04D003
:10C8A000FB6C03E07B680022DA8100231800BD46A0
:10C8B00015B090BD192A00000829000080B584B089
:10C8C00000AF786039607B68002B02D03B68002B9A
:10C8D00001D10E232CE03B681A687B681A607B68E4
:10C8E000012252425A823B681A797B681A757B682A
:10C8F000FF221A740823FB1801229A700823FB18E0
:10C900000D4A1A807B681A1D0823FB1819000120A4
:10C91000FFF776FD0300FB60FB68002B01D0FB688E
:10C9200006E03A687B6811001800FFF765FE030017
:10C930001800BD4604B080BD0F18000080B58AB055
:10C9400000AF78600A00FB1C1A707B68002B01D1D5
:10C950000E2367E000237B627B681A7CFB1C1B783C
:10C960009A425ED01C23FB180822002118000AF00E
:10C9700091FD1C23FB1801221A801C23FB180022A6
:10C980005A801C23FB18FA1C5A607B68588A7B6803
:10C99000DB881C22BA181900FFF742FD03007B62F6
:10C9A0007B6A002B09D1FB1C1A787B681A747B68A0
:10C9B0005B8A1E4A934232D001E07B6A32E07B6898
:10C9C0001B7D002B2BD00C23FB18102200211800FC
:10C9D0000AF060FD7B68DA880C23FB181A800C23B0
:10C9E000FB1801229A701C23FB185A880C23FB1891
:10C9F0009A800C23FB181C22BA189A601C23FB187F
:10CA00005A680C23FB18DA607B685B8A0C22BA1820
:10CA100011001800FFF70CFD03007B6201E0082302
:10CA20007B627B6A1800BD460AB080BDFFFF000034
:10CA300070DF7047C046180071DF7047C0461800AD
:10CA400072DF7047C046180073DF7047C046180099
:10CA500074DF7047C046180075DF7047C046180085
:10CA600076DF7047C046180077DF7047C046180071
:10CA700078DF7047C046180079DF7047C04618005D
:10CA80007ADF7047C04618007BDF7047C046180049
:10CA90007CDF7047C04618007DDF7047C046180035
:10CAA0007EDF7047C04618007FDF7047C046180021
:10CAB00080DF7047C046180081DF7047C04618000D
:10CAC00082DF7047C046180083DF7047C0461800F9
:10CAD00084DF7047C046180085DF7047C0461800E5
:10CAE0008ADF7047C046180086DF7047C0461800CE
:10CAF00087DF7047C046180088DF7047C0461800BF
:10CB000089DF7047C0461800B0DF7047C046180084
:10CB1000B1DF7047C0461800B2DF7047C04618004A
:10CB200090DF7047C046180091DF7047C04618007C
:10CB300092DF7047C046180093DF7047C046180068
:10CB400094DF7047C046180095DF7047C046180054
:10CB500096DF7047C046180097DF7047C046180040
:10CB600098DF7047C0461800A0DF7047C046180025
:10CB7000A1DF7047C0461800A2DF7047C04618000A
:10CB8000A3DF7047C0461800A4DF7047C0461800F6
:10CB9000A5DF7047C0461800A6DF7047C0461800E2
:10CBA000A7DF7047C0461800A8DF7047C0461800CE
:10CBB000A9DF7047C0461800AADF7047C0461800BA
:10CBC00060DF7047C046180061DF7047C04618003C
:10CBD00062DF7047C046180063DF7047C046180028
:10CBE00064DF7047C046180065DF7047C046180014
:10CBF00066DF7047C046180067DF7047C046180000
:10CC000068DF7047C046180069DF7047C0461800EB
:10CC100080B582B000AF78607B681B781AB27B6801
:10CC200001331B781B021BB213431BB29BB21800CB
:10CC3000BD4602B080BD90B585B000AF78600E23D0
:10CC4000FC187B681800FFF7E3FF030023800E2326
:10CC5000FB181B88012213405A1E9341DBB21800B7
:10CC6000BD4605B090BD000080B582B000AF7860D1
:10CC70007B685A88084B1B889A4207D37B685A887E
:10CC8000054B5B889A4201D8012300E0002318007D
:10CC9000BD4602B080BDC046A026002080B586B04B
:10CCA00000AF7860294B1B88294A93424AD0294B10
:10CCB0001B780133DAB2274B1A70274B1A7B254BAE
:10CCC0001B789A4215D3214B1B88244A1100180067
:10CCD000FFF7C2FE03007B617B69002B32D01E4B45
:10CCE0009B69002B2ED01C4B9B697A6910009847DA
:10CCF00028E0184B00221A70174B1B7C002B13D016
:10CD0000124B1B883B211800FFF7AAFE03003B6172
:10CD10003B69002B08D0104B9B69002B04D00E4BB5
:10CD20009B693A69100098470B4B5B69002B09D04F
:10CD30000C23FB1800221A70074B5B690C22BA18EF
:10CD400010009847C046BD4606B080BDAA26002008
:10CD5000FFFF0000A826002084260020A026002037
:10CD600090B585B000AF78601F4B7A6813CA13C3C3
:10CD700013CA13C312681A601C4B00221A707B6816
:10CD80001B68002B13D07B681B68194A1000190020
:10CD900008231A000AF0ECFA154B1800FFF770FE92
:10CDA0000300FB60FB68002B0CD0FB6818E0104B05
:10CDB0001800FFF769FE0300FB60FB68002B01D041
:10CDC000FB680DE00B4B012252421A800A4B0022F5
:10CDD0001A700A4A0A4B00211800FDF74BF80300AD
:10CDE0001800BD4605B090BD84260020D426002042
:10CDF000A0260020AA260020A82600209DCC010005
:10CE00005478020080B500AF034B1800FDF7BCF862
:10CE100003001800BD4680BDB426002080B584B054
:10CE200000AF274B1800FFF71FFF03001A00012374
:10CE30005340DBB2002B30D0224B1B78002B0CD0A0
:10CE4000214B5B69002B34D03B1D00221A701E4B16
:10CE50005B693A1D100098472BE01C4B1B78002B98
:10CE600003D1194B5B68FB6002E0174B9B68FB60CA
:10CE7000174BF96800221800FDF74CF80300BB605F
:10CE8000BB68002B15D0104B9B69002B11D00E4BAB
:10CE90009B69BA68100098470BE00B4B5B69002B4D
:10CEA00007D03B0001221A70074B5B693A00100063
:10CEB0009847044B00221A70C046BD4604B080BD9E
:10CEC000AC260020D426002084260020A82600209E
:10CED000B426002080B582B000AF78607B689A8865
:10CEE0000B4B1A800B497B68162208009B180822FE
:10CEF00019000AF03DFA084B00221A70074BDB8933
:10CF0000002B01D1FFF78AFFC046BD4602B080BDAD
:10CF1000AA260020AC260020A82600208426002077
:10CF200080B584B000AF78600E4B012252421A8067
:10CF30000D4B00221A700D4B1800FDF725F8030069
:10CF4000FB60FB68002B08D0094B9B69002B04D0C9
:10CF5000074B9B69FA6810009847C046BD4604B06D
:10CF600080BDC046AA260020A8260020B4260020A6
:10CF70008426002080B584B000AF78607B680633DB
:10CF8000FB60FB681A88144BDB899A421FD1FB684F
:10CF90001B8B022B1BD1FB681A331800FFF74BFECB
:10CFA000031E02D0FFF73AFF11E00C4B1800FCF70C
:10CFB000EBFF0300BB60BB68002B08D0064B9B69EE
:10CFC000002B04D0044B9B69BA6810009847C046F8
:10CFD000BD4604B080BDC04684260020B426002093
:10CFE00080B582B000AF786007497B6806220800F0
:10CFF0009B18082219000AF0BBF9FFF70FFFC04683
:10D00000BD4602B080BDC046AC26002080B582B0CF
:10D0100000AF78607B681B88112B0DD002DC102BD1
:10D0200005D018E0122B11D0502B0AD013E07B68EA
:10D030001800FFF74FFF0EE07B681800FFF770FF46
:10D0400009E07B681800FFF795FF04E07B68180093
:10D05000FFF7C6FFC046C046BD4602B080BD000017
:10D0600080B584B000AF7860204A7B68100019005A
:10D0700008231A000AF07CF91C4B1800FFF700FD8A
:10D080000300FB60FB68002B2AD1194B1800FFF747
:10D09000EBFD03001A0001235340DBB2002B0FD03D
:10D0A000144B01221A70144B1B88104A11001800EF
:10D0B000FFF7D2FC0300FB60104B01221A700FE057
:10D0C0000F4B5B69002B09D00823FB1801221A7053
:10D0D0000B4B5B690822BA18100098470023FB60CD
:10D0E000FB681800BD4604B080BDC046A0260020E5
:10D0F000AC260020D4260020AA260020A826002046
:10D100008426002080B582B000AF02003960BB1DCC
:10D110001A80BB1D1B88DAB23B681A703B6801336A
:10D12000BA1D1288120A92B2D2B21A7002231800E3
:10D13000BD4602B080BD70DF7047C046180071DF89
:10D140007047C046180072DF7047C046180073DF92
:10D150007047C046180074DF7047C046180075DF7E
:10D160007047C046180076DF7047C046180077DF6A
:10D170007047C046180078DF7047C046180079DF56
:10D180007047C04618007ADF7047C04618007BDF42
:10D190007047C04618007CDF7047C04618007DDF2E
:10D1A0007047C04618007EDF7047C04618007FDF1A
:10D1B0007047C046180080DF7047C046180081DF06
:10D1C0007047C046180082DF7047C046180083DFF2
:10D1D0007047C046180084DF7047C046180085DFDE
:10D1E0007047C04618008ADF7047C046180086DFC7
:10D1F0007047C046180087DF7047C046180088DFB8
:10D200007047C046180089DF7047C0461800B0DF7D
:10D210007047C0461800B1DF7047C0461800B2DF43
:10D220007047C046180090DF7047C046180091DF75
:10D230007047C046180092DF7047C046180093DF61
:10D240007047C046180094DF7047C046180095DF4D
:10D250007047C046180096DF7047C046180097DF39
:10D260007047C046180098DF7047C0461800A0DF1E
:10D270007047C0461800A1DF7047C0461800A2DF03
:10D280007047C0461800A3DF7047C0461800A4DFEF
:10D290007047C0461800A5DF7047C0461800A6DFDB
:10D2A0007047C0461800A7DF7047C0461800A8DFC7
:10D2B0007047C0461800A9DF7047C0461800AADFB3
:10D2C0007047C046180060DF7047C046180061DF35
:10D2D0007047C046180062DF7047C046180063DF21
:10D2E0007047C046180064DF7047C046180065DF0D
:10D2F0007047C046180066DF7047C046180067DFF9
:10D300007047C046180068DF7047C046180069DFE4
:10D310007047C0461800F0B58BB000AFF861B96136
:10D32000BB695A1E9341DBB27B627B6A002B04D13E
:10D33000002200210020FBF70DFCFB695A1E9341DF
:10D34000DBB23B623B6A002B04D1002200210020AB
:10D35000FBF700FCBB695C681B68DAB2FB691A70FA
:10D36000FB695A1CBB695C681B682106180A386196
:10D37000386908433861230A7B613B7C1370FB6981
:10D380009A1CBB695C681B682104180CB860B868FB
:10D390000843B860230CFB603B7A1370FB69DA1C0E
:10D3A000BB695C681B6821021D0E0D43260EEBB2A3
:10D3B0001370FB691A1DBB695C681B6823003B6026
:10D3C00000237B603B781370FB695A1DBB699B6827
:10D3D000DBB21370FB699A1DBB699B681B0ADBB249
:10D3E0001370FB69DA1DBB699B681B0CDBB2137001
:10D3F000C046BD460BB0F0BD80B586B000AF7860CA
:10D4000039601723FB1800221A703B685A1E93419B
:10D41000DBB23B613B69002B04D1002200210020DC
:10D42000FBF798FB7B685A1E9341DBB2FB60FB68FD
:10D43000002B04D1002200210020FBF78BFB1723D7
:10D44000FB181B781722BA18591C11701A007B6838
:10D450009B183A6812781A703B6858881723FB1893
:10D460001B787A68D3181900FFF74CFE03001900E7
:10D470001723FB181722BA1812788A181A703B68FB
:10D4800098881723FB181B787A68D3181900FFF7C0
:10D4900039FE030019001723FB181722BA18127857
:10D4A0008A181A703B68D8881723FB181B787A688B
:10D4B000D3181900FFF726FE030019001723FB18E5
:10D4C0001722BA1812788A181A701723FB181B78BB
:10D4D000073B5A425341DBB2BB60BB68002B04D10F
:10D4E000002200210020FBF735FBC046BD4606B0F8
:10D4F00080BD000080B594B000AFB96011007B60C2
:10D500000E23FB18021C1A800C23FB180A1C1A801D
:10D51000BB685A1E9341DBB2FB64FB6C002B04D149
:10D52000002200210020FBF715FB0C23FB181B88B1
:10D530005A1E9341DBB2BB64BB6C002B04D10022AA
:10D5400000210020FBF706FB2823FB181C220021EA
:10D55000180009F09FFF2823FB181A7802210A43BC
:10D560001A702823FB1800225A602823FB18002277
:10D57000DA602823FB1800221A612823FB180022F6
:10D580005A612823FB1800229A614423FB180122C8
:10D590009A704423FB180E22BA1812881A8010239E
:10D5A000FB1803220021180009F074FF1023FB1858
:10D5B0007A6812781A701023FB187A6852785A70B9
:10D5C0001023FB189A7806218A43111C02220A4371
:10D5D0009A701023FB189A7808218A439A701023B6
:10D5E000FB189A7810218A439A701023FB189A78B6
:10D5F00001218A439A701423FB1814220021180079
:10D6000009F048FF1423FB184422BA181A601423A7
:10D61000FB181022BA185A601423FB180C22BA18EF
:10D6200012881A811423FB1800225A811423FB1834
:10D630000C22BA1812889A811423FB18BA681A614E
:10D64000064B1888BB6D1422BA1828217918FFF7E9
:10D6500016FE03001800BD4614B080BDD62600207B
:10D6600090B58BB002AF78601823FB1801229A7036
:10D670001823FB18824A1A80824A1823FB181900C3
:10D680000120FFF7F4FD0300FB61FB69002B01D0D3
:10D69000FB69F0E07B681B88002B14D07B6859681D
:10D6A0007B681A887B683C331800774C774B009373
:10D6B00003002000FFF71EFF0300FB61FB69002B46
:10D6C00001D0FB69D7E07B681B89002B14D07B68F5
:10D6D000D9687B681A897B683C3318006C4C6D4BA9
:10D6E000009303002000FFF705FF0300FB61FB69C7
:10D6F000002B01D0FB69BEE07B681B8A002B14D095
:10D700007B6859697B681A8A7B683C331800624CD5
:10D71000624B009303002000FFF7ECFE0300FB6167
:10D72000FB69002B01D0FB69A5E07B681B8B002BFC
:10D7300014D07B68D9697B681A8B7B683C331800EE
:10D74000574C584B009303002000FFF7D3FE030013
:10D75000FB61FB69002B01D0FB698CE07B681B8CB3
:10D76000002B14D07B68596A7B681A8C7B683C3329
:10D7700018004D4C4D4B009303002000FFF7BAFEFC
:10D780000300FB61FB69002B01D0FB6973E07B6840
:10D790001B8D002B14D07B68D96A7B681A8D7B683F
:10D7A0003C331800424C434B009303002000FFF72A
:10D7B000A1FE0300FB61FB69002B01D0FB695AE06D
:10D7C0007B681B6B002B1AD07B681A6B1023FB182D
:10D7D00011001800FFF79FFD7B683C331A001023EF
:10D7E000F9183548354B009313000822FFF782FEE5
:10D7F0000300FB61FB69002B01D0FB693BE07B6808
:10D800005B6B002B17D07B685B6B19687B685B6B6D
:10D810001B799AB27B683C331800294C294B009342
:10D8200003002000FFF766FE0300FB61FB69002B8D
:10D8300001D0FB691FE07B689B6B002B1AD07B68D3
:10D840009A6B0823FB1811001800FFF7D5FD7B68C1
:10D850003C331A000823F9181B481C4B0093130093
:10D860000722FFF747FE0300FB61FB69002B01D095
:10D87000FB6900E000231800BD4609B090BDC0461A
:10D880000A180000D6260020292A0000D8260020E9
:10D89000242A0000E0260020252A0000E826002097
:10D8A000272A0000F0260020262A0000F826002063
:10D8B000282A000000270020232A00000827002033
:10D8C0002A2A000010270020502A000018270020D4
:10D8D00070DF7047C046180071DF7047C0461800FF
:10D8E00072DF7047C046180073DF7047C0461800EB
:10D8F00074DF7047C046180075DF7047C0461800D7
:10D9000076DF7047C046180077DF7047C0461800C2
:10D9100078DF7047C046180079DF7047C0461800AE
:10D920007ADF7047C04618007BDF7047C04618009A
:10D930007CDF7047C04618007DDF7047C046180086
:10D940007EDF7047C04618007FDF7047C046180072
:10D9500080DF7047C046180081DF7047C04618005E
:10D9600082DF7047C046180083DF7047C04618004A
:10D9700084DF7047C046180085DF7047C046180036
:10D980008ADF7047C046180086DF7047C04618001F
:10D9900087DF7047C046180088DF7047C046180010
:10D9A00089DF7047C0461800B0DF7047C0461800D6
:10D9B000B1DF7047C0461800B2DF7047C04618009C
:10D9C00090DF7047C046180091DF7047C0461800CE
:10D9D00092DF7047C046180093DF7047C0461800BA
:10D9E00094DF7047C046180095DF7047C0461800A6
:10D9F00096DF7047C046180097DF7047C046180092
:10DA000098DF7047C0461800A0DF7047C046180076
:10DA1000A1DF7047C0461800A2DF7047C04618005B
:10DA2000A3DF7047C0461800A4DF7047C046180047
:10DA3000A5DF7047C0461800A6DF7047C046180033
:10DA4000A7DF7047C0461800A8DF7047C04618001F
:10DA5000A9DF7047C0461800AADF7047C04618000B
:10DA600060DF7047C046180061DF7047C04618008D
:10DA700062DF7047C046180063DF7047C046180079
:10DA800064DF7047C046180065DF7047C046180065
:10DA900066DF7047C046180067DF7047C046180051
:10DAA00068DF7047C046180069DF7047C04618003D
:10DAB00080B582B000AF02003960BB1D1A80BB1D6B
:10DAC0001B88DAB23B681A703B680133BA1D1288B2
:10DAD000120A92B2D2B21A7002231800BD4602B0E6
