:020000021000EC
:108000000080002019270200612702006327020078
:108010000000000000000000000000000000000060
:1080200000000000000000000000000065270200C2
:10803000000000000000000067270200692702001E
:108040006B2702006B2702007DA301006B27020053
:108050006B27020000000000519F01006B27020007
:108060006B2702006B2702006B2702006B270200C0
:108070006B2702006B2702006B2702006B270200B0
:108080006B270200259201006B2702006B2702007C
:10809000759201006B270200D92602006B270200AF
:1080A0006B2702006B2702000000000000000000A8
:1080B00000000000000000000000000000000000C0
:1080C00010B5064C2378002B07D1054B002B02D0AE
:1080D000044800E000BF0123237010BD7C20002075
:1080E00000000000142D0200084B10B5002B03D037
:1080F0000749084800E000BF07480368002B00D18B
:1081000010BD064B002BFBD09847F9E7000000009C
:1081100080200020142D02007C20002000000000A0
:10812000164B002B00D1144B9D46402292029A1A06
:10813000924600218B460F461348144A121A00F04B
:1081400065F80F4B002B00D098470E4B002B00D04A
:1081500098470020002104000D000D48002802D09F
:108160000C4800E000BF00F02DF82000290005F0C9
:10817000F5FB00F011F8C046000008000080002068
:1081800000000000000000007C200020702900207A
:108190000000000000000000084B10B50400002B98
:1081A00002D0002100E000BF054B1868836A002B55
:1081B00000D09847200000F031F8C04600000000D1
:1081C000D42A020070B500260C4D0D4C641BA4107F
:1081D000A64209D100260AF071FC0A4D0A4C641B24
:1081E000A410A64205D170BDB300EB5898470136E4
:1081F000EEE7B300EB5898470136F2E77420002011
:1082000074200020742000207820002003008218B1
:10821000934200D1704719700133F9E7FEE7C04679
:1082200090B589B000AF78601F23FB1800221A7048
:1082300054E0304B1A681F23FB181B78DB00D3185F
:10824000BB61BB691B781A00012393407B612A4BF9
:108250001B687A6913403AD07B69DA43264B1B6866
:108260001A40254B1A60BB691B781322BC181800F2
:1082700001F05EFE03002370BB691B781A00012326
:1082800093401A001D4B1B6813401322BA18127832
:10829000B96909788A40934219D11323FB181B78D6
:1082A000BA695278013A51424A41D2B29B1A5A42B3
:1082B0005341DBB2FB60BB695B68002B07D0BB6935
:1082C0005B68BA691278F968C9B2100098471F2331
:1082D000FB181A781F23FB1801321A70084B1B7801
:1082E0001F22BA1812789A42A3D3C046BD4609B0DD
:1082F00090BDC04698200020C8200020C420002047
:108300009C20002080B584B000AF78600A00FB1C80
:108310001A7001227B689A401300FB601E4B180004
:1083200001F0BEF80300BB60BB68002B30D11B4BD3
:108330001B68FA68134023D17B68180001F0F8FD30
:10834000031E06D0164B1A68FB681A43144B1A60BA
:1083500006E0FB68DA43124B1B681A40104B1A60A8
:108360000E4B1A68FB681A430C4B1A600A480D4BF7
:108370001B680022190001F059F80300BB6008E0F7
:10838000FB68DA43054B1B681A40044B1A6000E097
:10839000C046BD4604B080BDA4200020C8200020F7
:1083A000C4200020A020002080B588B000AFF86075
:1083B0007A600B23FB180A1C1A707B68042B01D807
:1083C00007235FE001F0B6FC03001A0001235340CD
:1083D000DBB2002B08D001F06BFC0300FB61FB69F2
:1083E000002B01D0FB694DE0284BFA681A60284B3E
:1083F0000B22BA1812781A70264B7A681A60264B2C
:1084000000221A60254B00221A602BE00B23FB1878
:108410001B78DB00FA68D318BB611423FB18032216
:108420001A701423FB1800225A701423FB18002220
:108430009A701423FB180022DA70BB699A7814230F
:10844000FB185A70BB691B781800154A1423FB18D7
:10845000190001F07DFC0300FB61FB69002B01D0DA
:10846000FB690FE00B23FB181B780B22BA18591E6F
:108470001170002BCAD10B4A0B4B0021180000F0E1
:1084800085FF03001800BD4608B080BD982000207D
:108490009C200020A0200020C4200020C820002014
:1084A0000583010021820100D82A020080B582B034
:1084B00000AF00237B600CE00B4B1A687B68DB008D
:1084C000D3181B780121180001F0AAFC7B68013346
:1084D0007B60064B1B781A007B689A42ECD800231D
:1084E0001800BD4602B080BD982000209C200020CE
:1084F00080B500AFBFF34F8F024B034ADA60BFF382
:108500004F8FFEE700ED00E00400FA0580B584B06F
:1085100000AFF860B9607A60FFF7EAFFC046BD4679
:1085200004B080BD80B582B000AF78607B68032264
:1085300013405A425341DBB21800BD4602B080BD21
:1085400080B582B000AF0200FB1D1A70064BFA1D09
:10855000127811001F220A40012191400A001A607E
:10856000C046BD4602B080BD00E100E080B582B0EB
:1085700000AF0200FB1D1A70074AFB1D1B78190093
:108580001F230B40012199400B0019008023D1507B
:10859000C046BD4602B080BD00E100E080B582B0BB
:1085A00000AF0200FB1D1A70084AFB1D1B78190062
:1085B0001F230B40012199400B00190080235B0011
:1085C000D150C046BD4602B080BDC04600E100E0CB
:1085D00080B582B000AF0200FB1D1A70084AFB1D77
:1085E0001B7819001F230B40012199400B00190033
:1085F000C0235B00D150C046BD4602B080BDC0461E
:1086000000E100E0B0B582B000AF02003960FB1DB0
:108610001A70FB1D1B787F2B32D92F4CFB1D1B784A
:108620001A000F231340083B99082B4AFB1D1B78A7
:1086300018000F230340083B9B0806339B00D31808
:1086400004331B68FA1D1278100003220240D20086
:10865000FF2090400200D2431A403B689B01FF205C
:108660001840FB1D1B781D0003232B40DB009840A6
:1086700003001A438B1D9B00E31804331A6027E0A4
:10868000164CFB1D1B785BB29B081449FA1D12782F
:1086900052B29208C03292005258F91D097808006F
:1086A00003210140C900FF2088400100C943114057
:1086B0003A689201FF201040FA1D1278150003223B
:1086C0002A40D200904002000A43C0339B001A5156
:1086D000C046BD4602B0B0BD00ED00E000E100E0E4
:1086E00080B582B000AF0200FB1D1A70FB1D1B7825
:1086F0007F2B18D9174AFB1D1B7819000F230B403D
:10870000083B9B0806339B00D31804331A68FB1DF3
:108710001B78190003230B40DB00DA4013009B0990
:108720000322134012E00C4AFB1D1B785BB29B082E
:10873000C0339B009A58FB1D1B78190003230B4084
:10874000DB00DA4013009B09032213401800BD46EA
:1087500002B080BD00ED00E000E100E080B582B035
:1087600000AF0C4B5B68DB05DB0D7B607B68002B8F
:108770000AD07B68103B3B603B685BB21800FFF798
:10878000AFFF0300DBB200E004231800BD4602B0D7
:1087900080BDC04600ED00E080B582B000AF7860DB
:1087A0000649A123DB007A68CA5003211120FFF794
:1087B00029FFC046BD4602B080BDC0460010014042
:1087C00080B582B000AF1749D1239B0080225202AE
:1087D000CA501449C1239B0080225202CA50112062
:1087E000FFF7F6FE1120FFF7ABFE0E4B01221A60D9
:1087F0002F237B607B6818000138C046C046C04606
:10880000C046C046C046C046C046C046C046C04638
:10881000C046F1D1044B01221A70C046BD4602B0D9
:1088200080BDC04600100140EC20002080B582B021
:1088300000AF1120FFF79AFE1F49D2239B00802230
:108840005202CA501C49C2239B0080225202CA50C5
:10885000194B01225A602F237B607B681800013876
:10886000C046C046C046C046C046C046C046C046D8
:10887000C046C046C046C046F1D10F4B01229A60A7
:108880000E4B00221A602F233B603B681800013812
:10889000C046C046C046C046C046C046C046C046A8
:1088A000C046C046C046C046F1D1054B00221A70F2
:1088B000C046BD4602B080BD00100140D820002057
:1088C000EC20002080B500AF024A034BD3581800BB
:1088D000BD4680BD001001400405000080B582B097
:1088E00000AF786039607A683B68D31A1B021B0AB4
:1088F0001800BD4602B080BD80B582B000AF786080
:108900000449A823DB007A68CA50C046BD4602B0BD
:1089100080BDC0460010014080B586B000AF7860D1
:10892000284B1B68002B03D1264B7A681A6045E060
:108930007B681A68234B1B681B689A4210D8214B2E
:108940001B68204A126811687A6812688A1A1A60CD
:108950001C4B1A687B68DA611A4B7A681A602DE042
:108960007B681B68FB60174B1B687B61154B1B68A2
:108970003B6109E03B691B68FA68D31AFB603B69FD
:108980007B613B69DB693B613B69002B04D03B6940
:108990001A68FB689A42EDD33B69002B05D03B690E
:1089A0001A68FB68D21A3B691A607B68FA681A6019
:1089B0007B683A69DA617B697A68DA61C046BD46EC
:1089C00006B080BDD420002080B586B000AF7860AE
:1089D000224B1B687B617B693B6108E03A697B68DD
:1089E0009A4208D03B697B613B69DB693B613B692B
:1089F000002BF3D100E0C0463B69002B29D07A69F7
:108A00003B699A4211D1154B1B68DA69134B1A6006
:108A1000124B1B68002B08D1114B01229A60114B9D
:108A200000221A60104B01221A703B691B68FB6020
:108A30003B69DA697B69DA617B69DB693B613B69C8
:108A4000002B07D03B691A68FB68D2183B691A6093
:108A500000E0C046BD4606B080BDC046D420002020
:108A600000100140D8200020ED20002080B500AF8C
:108A70001120FFF793FDC046BD4680BD80B500AF15
:108A80001420FFF78BFDC046BD4680BD80B584B085
:108A900000AF7860114B1B68002B15D00F4B1A6884
:108AA0007B6858697B689B69190090470300FB60ED
:108AB000FB68BB60BB68002B0CD0BB6800220021A8
:108AC0001800FFF723FD05E07B685A697B689B6906
:108AD00018009047C046BD4604B080BDE820002085
:108AE00080B584B000AF2C4B1B68002B50D0002306
:108AF0007B60FFF7E7FE0200284B1B68190010009F
:108B0000FFF7ECFE0300BB60234B1B68FB601EE01D
:108B1000FB681A68BB689A421DD8FB681B68BA6874
:108B2000D31ABB60FB681B687A68D3187B60FB684C
:108B30003B60FB68DB69FB603B681B7C002B06D05D
:108B40003B6800221A743B681800FFF79FFFFB6820
:108B5000002BDDD100E0C046114B1A78114B1B7879
:108B60009A420CD10F4B1B780133DAB20D4B1A70BD
:108B70000C4B1B78022B02D10A4B00221A70094BB6
:108B80001B781A00084B92007968D150FFF776FFE6
:108B9000C046BD4604B080BDD4200020D8200020AF
:108BA000E4200020E5200020DC20002080B582B0F9
:108BB00000AF7860184B1A78184B1B789A4223D074
:108BC000154B1B780133DAB2134B1A70124B1B781A
:108BD000022B02D1104B00221A700F4B1B781A0087
:108BE0000F4B9200D2587B681A607B681A680D4B55
:108BF0001B68D2180B4B1A600A4B1B681B021A0A1F
:108C0000084B1A60012303E07B6800221A600023EE
:108C10001800BD4602B080BDE4200020E520002001
:108C2000DC200020D820002080B586B000AF364B75
:108C30001B683B611723FB18344A12781A704EE008
:108C4000334B1A681723FB181B78DB00D318FB6023
:108C50001623FB18FA6812781A7039E0FB68596815
:108C60001623FB181A7813005B009B18DB00CB1847
:108C7000BB601623FB181A781623FB1801321A70F2
:108C8000FB689B781622BA1812789A4203D11623F1
:108C9000FB1800221A70BB681B78022B02D0032B32
:108CA00010D014E0BB685B681800FFF78DFE0FE082
:108CB000154B1B687B607B6800221A747B68DA693D
:108CC000114B1A60104B1B68002BF1D100E0C0461D
:108CD000FB685B781622BA1812789A42BED1172325
:108CE000FB181B781722BA18591E1170002BA7D138
:108CF000054B1A683B69D31A5A1E9341DBB2180020
:108D0000BD4606B080BDC046D4200020CC20002047
:108D1000D020002080B588B000AFF860B9607A60DC
:108D20000023FB6138E0204B1B68BB61BB691A68FC
:108D3000FB689A4206D9BB691A68FB68D21ABB69FC
:108D40001A602DE0BB691B68FA68D31AFB60BB6927
:108D50001B68FA69D318FB61BB6900221A60124BC9
:108D60001B687B61BB69DA690F4B1A60BB69DB6802
:108D7000002B11D0BA68FB69D3181B021A0ABB6911
:108D80005A60BB69DA68BB699A607B681A68BB691C
:108D9000DA617B687A691A60034B1B68002BC2D1C9
:108DA000C046BD4608B080BDD420002080B588B044
:108DB00000AF78605C4B1B687B611F23FB185B4A2C
:108DC00012781A709BE05A4B1A681F23FB181B7805
:108DD000DB00D3183B6187E07B68002B05D07B6804
:108DE000BB61BB69DB697B603CE03B695A683B69FE
:108DF0001B7819000B005B005B18DB00D318FB60CD
:108E00003B691B780133DAB23B691A703B691A7807
:108E10003B699B789A4202D13B6900221A70FB6839
:108E20005B68BB61FB681B78012B5DD1BB691B7C58
:108E3000002B00D058E0FB689A68BB695A60FB6859
:108E4000DA68BB699A60FB681A69BB69DA60FB681B
:108E50005A69BB699A61374B1B78002B02D0BB69FA
:108E600000225A60BB695A68334B1B68D31A1B0235
:108E70001B0A324A93420ED8BB695A682E4B1B68B4
:108E800019001000FFF72AFD0200BB699B68D21889
:108E9000BB691A6018E0284B1A68BB695B68190047
:108EA0001000FFF71BFD0300BB60BB699A68BB683D
:108EB0009A4206D9BB699A68BB68D21ABB691A6024
:108EC00002E0BB6900221A60BB6900225A60BB69DC
:108ED00000229A60BB6901221A74BB690022DA6120
:108EE000BB691800FFF718FD7B68002B00D073E703
:108EF0003B691A783B695B789A4200D06CE71F2384
:108F0000FB181B781F22BA18591E1170002B00D0B5
:108F100059E7054B1A687B69D31A5A1E9341DBB295
:108F20001800BD4608B080BDD4200020CC20002011
:108F3000D0200020ED200020D8200020FEFF7F0060
:108F400090B589B000AF7860334B1B68002B5CD0C4
:108F5000314B1B681B68FB61FFF7B4FC0300BB616E
:108F60002E4B1B687B617A69BB6911001800FFF703
:108F7000B5FC030003333B61294B1B7801225340AE
:108F8000DBB2002B01D0FFF71BFCFA693B6993426F
:108F900000D213007A69D3187B617B691B021B0A1C
:108FA0007B617B691800FFF7A7FCFFF78BFC0300D0
:108FB000FB60BA69FB6811001800FFF78FFC030023
:108FC000DC1CBA697B6911001800FFF787FC0300FD
:108FD0009C421CD9FFF776FC03001800FFF78CFCBD
:108FE0002F23BB60BB6818000138C046C046C0468E
:108FF000C046C046C046C046C046C046C046C04641
:10900000C046F1D1FFF732FD01E0FFF70FFCC0468B
:10901000BD4609B090BDC046D4200020D820002015
:10902000EC20002090B587B000AF00237B601E4B82
:109030001B683B611D4B1B68FB600B23FC183B004E
:109040001800FFF7B3FD030023701723FC18FFF788
:10905000EBFD030023700B23FB181B78002B09D0BA
:109060003B683A1D39691800FFF754FE1723FB18B7
:1090700001221A707B681800FFF798FE031E03D0C8
:109080001723FB1801221A701723FB181B78002BDB
:1090900003D0FB681800FFF753FF054B00221A703E
:1090A000C046BD4607B090BDD8200020D420002087
:1090B000ED20002080B582B000AF78600A00FB1C74
:1090C0001A707B68FA1C12785A70C046BD4602B00E
:1090D00080BD80B584B000AF786039607B685A7815
:1090E0000F23FB1801321A707B689B780F22BA1885
:1090F00012789A4203D10F23FB1800221A707B6862
:109100001B780F22BA1812789A4201D1002310E07E
:109110003B680F22BA1812781A707B685A687B680D
:109120005B7819000B005B005B18DB00D318BB6099
:10913000BB681800BD4604B080BD000080B586B095
:1091400000AFF860B9607A603B601C4B1A68FB683E
:10915000DB00D3181322BA1811001800FFF7B9FF6B
:1091600003007B617B69002B01D1042322E07B6932
:1091700001221A707B69BA685A60FFF7A3FB0200EC
:109180007B699A607B697A68DA607B693A681A6100
:109190007B693A6A5A61094B1A68FB68DB00D2188E
:1091A0001323FB181B7819001000FFF783FFFFF74C
:1091B00065FC00231800BD4606B080BDD02000200D
:1091C00080B584B000AF78603960154B1A687B6851
:1091D000DB00D3180B22BA1811001800FFF779FF33
:1091E0000300FB60FB68002B01D1042314E0FB6843
:1091F00002221A70FB683A685A60094B1A687B6849
:10920000DB00D2180B23FB181B7819001000FFF7A6
:1092100051FFFFF733FC00231800BD4604B080BDAA
:10922000D020002080B500AF114AA0235B000021B0
:10923000D1500F4AA2235B000021D1500C4AA42335
:109240005B000021D1500A4AA6235B000021D150C7
:10925000074A80235B000021D150054A82235B002E
:109260000021D150FFF73CFCC046BD4680BDC04642
:109270000010014080B500AFFFF7D4FEC046BD46E8
:1092800080BD000080B586B000AFF8607A603B60BA
:109290000B23FB180A1C1A707B681800FFF742F9B1
:1092A00003001A0001235340DBB2002B01D0072337
:1092B0005AE07B68002B04D12D4B00221A60072353
:1092C00052E0FFF7B3FA2B4B3A681A602A4B03229D
:1092D0001A70274B7A681A607B6818337B6000230A
:1092E0007B6121E0224B1A687B69DB00D3183B616C
:1092F0003B6900221A703B6900225A703B690B22BD
:10930000BA1812789A703B697A685A600B23FB1876
:109310001A7813005B009B18DB001A007B689B180F
:109320007B607B6901337B617B69022BDADD134B48
:1093300000221A60124B00221A70124B00221A707F
:109340001420FFF745F903211420FFF75BF91420DF
:10935000FFF7F6F8FB681800FFF71EFAFFF7B2FAFE
:109360000200094B1A6000231800BD4606B080BDFC
:10937000D0200020E8200020CC200020D420002095
:10938000E4200020E5200020D820002080B586B011
:1093900000AFF8607A600B23FB180A1C1A70154B9B
:1093A0001B68002B01D108231FE07B68002B01D133
:1093B00007231AE0FB68002B01D1072315E0FB68A7
:1093C0001B681B7C002B01D008230EE0FB681B6888
:1093D0007B617B6900221A747B690B22BA181278B0
:1093E0005A747B697A685A6100231800BD4606B03A
:1093F00080BDC046D020002080B582B000AFFFF70E
:10940000ADF90300012B02D0032B03D005E00023AC
:109410007B6005E001237B6002E002237B60C046A5
:109420007B681800BD4602B080BD000090B589B0D1
:1094300002AFF860B9607A60FB687B61174B1B680C
:10944000002B01D1082324E0FB68002B01D1082365
:109450001FE0BB68042B01D807231AE07B695B6916
:10946000002B01D1082314E07B695B7C012B01D127
:10947000BB6800E000233B61FFF7BEFF04003869D2
:10948000BA6879697B68009303002000FFF756FEF5
:1094900003001800BD4607B090BDC046D020002094
:1094A00080B584B000AF78607B68FB600F4B1B68B1
:1094B000002B01D1082314E07B68002B03D0FB684C
:1094C0005B69002B01D108230BE0FB6800221A74B2
:1094D000FFF792FF0200FB6819001000FFF770FE13
:1094E00003001800BD4604B080BDC046D020002057
:1094F00080B582B000AF786039603B681B7B002B81
:1095000007D03B685A687B681A607B6800221A7132
:1095100006E03B681A687B681A607B6801221A7152
:10952000C046BD4602B080BD80B582B000AF786055
:1095300039607B681B79002B06D03A687B68110084
:10954000180000F00DF805E03A687B68110018007B
:1095500000F027F87B681B681800BD4602B080BD8C
:1095600080B582B000AF786039603B685A687B682C
:109570001B68D21A3B689B689A4207D97B681A68B5
:109580003B689B68D2187B681A6006E03B685A68A3
:109590007B681A607B6800221A71C046BD4602B023
:1095A00080BD80B582B000AF786039607B681A6892
:1095B0003B681B68D21A3B689B689A4207D97B6854
:1095C0001A683B689B68D21A7B681A6006E03B68A1
:1095D0001A687B681A607B6801221A71C046BD4612
:1095E00002B080BD80B582B000AF0200FB1D1A70D2
:1095F000064BFA1D127811001F220A4001219140EA
:109600000A001A60C046BD4602B080BD00E100E01D
:1096100080B582B000AF0200FB1D1A70084AFB1D26
:109620001B7819001F230B40012199400B001900E2
:10963000C0235B00D150C046BD4602B080BDC046CD
:1096400000E100E0B0B582B000AF02003960FB1D60
:109650001A70FB1D1B787F2B32D92F4CFB1D1B78FA
:109660001A000F231340083B99082B4AFB1D1B7857
:1096700018000F230340083B9B0806339B00D318B8
:1096800004331B68FA1D1278100003220240D20036
:10969000FF2090400200D2431A403B689B01FF200C
:1096A0001840FB1D1B781D0003232B40DB00984056
:1096B00003001A438B1D9B00E31804331A6027E054
:1096C000164CFB1D1B785BB29B081449FA1D1278DF
:1096D00052B29208C03292005258F91D097808001F
:1096E00003210140C900FF2088400100C943114007
:1096F0003A689201FF201040FA1D127815000322EB
:109700002A40D200904002000A43C0339B001A5105
:10971000C046BD4602B0B0BD00ED00E000E100E093
:1097200080B582B000AF0200FB1D1A70BB1D0A1C81
:109730001A70BB1D1A78FB1D1B785BB21100180054
:10974000FFF780FFFB1D1B785BB21800FFF760FF7F
:10975000FB1D1B785BB21800FFF744FFC046BD46F7
:1097600002B080BD80B582B000AF0200BB1D1A8080
:10977000BB1D1B88180000F01DF803001B68013B8F
:109780005A425341DBB21800BD4602B080BD80B5DD
:1097900082B000AF0200BB1D1A80BB1D1B881800E1
:1097A00000F008F8030000221A60C046BD4602B06F
:1097B00080BD000080B582B000AF0200BB1D1A80E2
:1097C000BB1D1B88034A944663441800BD4602B083
:1097D00080BDC0460060004080B582B000AF7860B8
:1097E0000449C1239B007A68CA50C046BD4602B0F6
:1097F00080BDC0460060004080B582B000AF786098
:10980000044AC1239B00D3587A6813401800BD4610
:1098100002B080BD0060004080B582B000AF7860CB
:109820000849084A7B684533FF339B009B58012257
:109830001A437B684533FF339B005A50C046BD46F0
:1098400002B080BD0060004090B585B000AFF86008
:10985000B960FB1D1A701649154AFB684533FF3382
:109860009B009B58134A1A40FB684533FF339B000B
:109870005A500F480E4AFB684533FF339B009A58F5
:10988000BB681902F8235B011940FB1D1B781B0400
:109890001C00C0239B0223400B431A43FB68453343
:1098A000FF339B001A50C046BD4605B090BDC04670
:1098B00000600040FFE0FCFF80B582B000AF786040
:1098C000064A7B684533FF339B009B581B0A1F22C7
:1098D00013401800BD4602B080BDC0460060004085
:1098E00080B582B000AF7860064A7B684533FF33AD
:1098F0009B009B581B0C03221340DBB21800BD4693
:1099000002B080BD0060004090B583B000AF7860C9
:109910000C0010001900FB1C221C1A70BB1C021C3E
:109920001A707B1C0A1C1A70A023DB05FA1C117824
:10993000BA1C1278520011437A1C1278920011431B
:109940001822BA181278120211431C22BA1812787F
:10995000120411437A68C132FF329200D150C046DE
:10996000BD4603B090BD80B584B002AF78600A00F8
:10997000FB1C1A70FB1C1A787868002301930023E3
:109980000093130000220021FFF7BEFFC046BD4632
:1099900002B080BD80B584B000AF7860A023DB0545
:1099A0007A68C132FF329200D35802229343FB609F
:1099B000A023DB057A68C132FF329200F968D150EA
:1099C000C046BD4604B080BD80B582B000AF7860AF
:1099D0000A00FB1C1A70A023DB05A022D2057968BF
:1099E000C131FF3189008A580E4911407A68C1326D
:1099F000FF329200D150A023DB05A022D205796866
:109A0000C131FF3189008A58F91C097809041143D2
:109A10007A68C132FF329200D150C046BD4602B0D2
:109A200080BDC046FFFFFCFF80B582B000AF78600C
:109A3000A023DA05A223DB00D2587B68DA401300AA
:109A4000012213401800BD4602B080BD80B500AFB2
:109A5000A023DA05A223DB00D3581800BD4680BD41
:109A600080B582B000AF7860A023DB057A68C13290
:109A7000FF329200D3581B0C03221340DBB21800B4
:109A8000BD4602B080BD000080B582B000AF7860F6
:109A90000E4A20217B68D3185B181B785BB2002B21
:109AA0000ADB0A4A20217B68D3185B181B785BB25B
:109AB000032B01DC012300E000231A1C01231340C7
:109AC000DBB21800BD4602B080BDC046F0200020C9
:109AD00080B582B000AF7860084A20217B68D31837
:109AE0005B181B785BB20122032B01DC00231A1CDC
:109AF000D3B21800BD4602B080BDC046F0200020A1
:109B000080B582B000AF7860074A20217B68D31807
:109B10005B181B785BB2DB43DBB2DB09DBB21800FE
:109B2000BD4602B080BDC046F020002080B584B0A4
:109B300000AFF860B9607A601A00FB1C1A70BB684D
:109B400058B2104A2021FB68D3185B18021C1A7007
:109B50000C4BBA6892007968D150FB1C1B7801222B
:109B60005340DBB2002B09D0BB68043BFA6850B20B
:109B7000044A4021D3185B18021C1A70C046BD4627
:109B800004B080BDF020002080B582B000AF7860C6
:109B9000054A20217B68D3185B18FF221A70C04643
:109BA000BD4602B080BDC046F020002080B582B026
:109BB00000AF7860054A20217B68D3185B181B78BA
:109BC0005BB21800BD4602B080BDC046F020002048
:109BD00080B582B000AF7860034B7A689200D358AA
:109BE0001800BD4602B080BDF020002080B588B0CE
:109BF00000AFF860B960FB1D1A701F23FB18FF222D
:109C00001A70FB1D1B78002B01D0002300E00423F9
:109C10007B61FB1D1B78002B01D0042300E008238F
:109C20003B617B69BB6114E0104BBA699200D35869
:109C300001330BD1FB1D1B78BA68B969F868FFF7CF
:109C400075FF1F23FB18BA691A7006E0BB69013360
:109C5000BB61BA693B699A42E6D31F23FB181B78A4
:109C60005BB21800BD4608B080BDC046F0200020A1
:109C700080B582B000AF0200FB1D1A70FB1D1A7880
:109C80000A4B920001214942D150FB1D1B78032B46
:109C900008D9FB1D1B78043B044A4021D3185B18EC
:109CA000FF221A70C046BD4602B080BDF0200020E1
:109CB00080B582B000AF1E4B44229B5C002B01D0CC
:109CC000082331E0FB1D00221A7009E0FB1D1B7800
:109CD0001800FFF759FFFB1D1A78FB1D01321A709F
:109CE000FB1D1B781F2BF1D9FB1D00221A7009E008
:109CF000FB1D1B781800FFF7BBFFFB1D1A78FB1D2F
:109D000001321A70FB1D1B78072BF1D903210620A5
:109D1000FFF706FD80231B061800FFF75DFD044BCF
:109D200044220121995400231800BD4602B080BD91
:109D3000F020002080B500AF044B44229B5C5A1EEB
:109D40009341DBB21800BD4680BDC046F020002024
:109D500090B587B000AFF860B9607A6000237B618E
:109D6000FB681800FFF7CCFE031E02D008237B61BE
:109D70004EE0BB68DA781323FC187968FB6818009A
:109D8000FFF734FF030023701323FB181B785BB22B
:109D900001333BD0BB689B78002B04D0FB681800D4
:109DA000FFF7F8FD06E0BB685A78FB681100180061
:109DB000FFF7D9FDBB68DB78002B0AD01323FB1813
:109DC00000201856BB681A78FB681900FFF73CFDA5
:109DD0001EE01323FB181B785BB2043B1322BA1856
:109DE000127852B2043A0D4940208A181218002104
:109DF0005156BA681278920152B20A4350B2074AD9
:109E00004021D3185B18021C1A7001E004237B6107
:109E10007B691800BD4607B090BDC046F020002009
:109E200080B586B000AF78600A00FB1C1A707B68B2
:109E30001800FFF74DFE031E3ED07B681800FFF7A9
:109E4000B5FE0300043B394A4021D3185B180022B9
:109E50009A561623FB181A701523FB181622BA18E7
:109E6000127892091A701523FB181B78032B0FD157
:109E7000FFF7ECFD010001227B689A4013000B40C4
:109E800001D0032200E002221723FB181A700AE017
:109E90001523FB181B78012B01D1022200E00322BD
:109EA0001723FB181A701723FB181A787B68110008
:109EB0001800FFF789FD35E07B681800FFF7E4FD27
:109EC000031E2FD07B681800FFF770FE03003B6174
:109ED0003B699BB240339AB20E23FB1892001A8062
:109EE0003B691800FFF798FC0E23FB181B8818002D
:109EF000FFF74DFCFB1C1B78002B13D07B68180070
:109F0000FFF754FE03001800FFF762FE0300BB607A
:109F1000BB68002B06D001223B699A401300180051
:109F2000FFF75AFCC046BD4606B080BDF0200020B9
:109F300080B582B000AF78607B681800FFF774FDD1
:109F400003005A1E9341DBB21800BD4602B080BD2B
:109F500090B58DB000AF0023FB620023BB622223CB
:109F6000FB18802252001A800123FB6100237B62D0
:109F700024E02223FB181B881800FFF7F3FB031EC5
:109F80000FD0FB691800FFF737FC031E09D022230E
:109F9000FB181B881800FFF7FAFBFA6AFB691343EA
:109FA000FB62FB695B00FB612223FB182222BA18CB
:109FB000128804321A807B6A01337B627B6A032B2E
:109FC000D7D9BE235B001800FFF7CCFB031E0DD0D2
:109FD000BE235B001800FFF7DAFBFB6A8022120643
:109FE0001343FB62FFF732FD0300BB62FB6A0F22E3
:109FF00013402CD00123FB6100237B6224E0FB692A
:10A00000FA6A13401AD07B6A1800FFF755FC030068
:10A01000BB611723FC187B6A1800FFF761FC030083
:10A0200023707B6A1800FFF7D3FD03003B61172301
:10A03000FB181978BA693B6910009847FB695B0007
:10A04000FB617B6A01337B627B6A032BD7D9FB6A96
:10A05000002B00DB6AE000237B6264E0354A40218C
:10A060007B6AD3185B181B785BB2013358D0314A36
:10A0700040217B6AD3185B1800229A560F23FB18E5
:10A080001A700F23FB181B78C0229343BB60BB6878
:10A090001800FFF78BFD03001800FFF799FD030080
:10A0A0007B607B68002B3BD0FB1C0F22BA18127818
:10A0B00092091A700122BB689A401300FB61BC1C14
:10A0C000BB681800FFF7CCFC03002370FB69BA6A79
:10A0D000134003D0BB1C1B78022B07D0FB69BA6A64
:10A0E00013401DD1BB1C1B78032B19D1FB1C1B7803
:10A0F000032B0FD1BB1C1B78022B01D1032200E0E4
:10A1000002227B1C1A707B1C1A78BB681100180095
:10A11000FFF75AFCFB1C1978BA687B681000984757
:10A120007B6A01337B627B6A032B97D9C046BD46AD
:10A130000DB090BDF020002080B582B000AF7860F7
:10A140000A00BB1C1A80BB1C1B887A68D31800222B
:10A150001A60C046BD4602B080BD80B582B000AF77
:10A1600078600A00BB1C1A80BB1C1B887A68D31855
:10A170001B685A1E9341DBB21800BD4602B080BD79
:10A1800080B582B000AF786039607A68C1239B00E7
:10A19000D3583A6813405A1E9341DBB21800BD46AB
:10A1A00002B080BD80B582B000AF786039607A6857
:10A1B000C2239B003968D150C046BD4602B080BD65
:10A1C00080B584B000AF78607A689023DB00D35804
:10A1D000FB607A689023DB00F968D150FB681800B7
:10A1E000BD4604B080BD80B582B000AF78607A68AB
:10A1F000A323DB00D358DBB21800BD4602B080BDFC
:10A2000080B582B000AF78600A00FB1C1A70FB1C9E
:10A210001A787B6802495A50C046BD4602B080BDDC
:10A220001C05000080B582B000AF78600A00FB1CFE
:10A230001A70FB1C1B787A68D31801221A60C0467A
:10A24000BD4602B080BD000080B582B000AF8E2355
:10A250005B00104A19001000FFF76EFF0E4B9B6861
:10A260000D4A128A92B29A18FB1D12781A700A4B84
:10A270001B8A9BB201339AB2074B1A82FB1D1B78D3
:10A28000044A19001000FFF7BBFFC046BD4602B0EC
:10A2900080BDC0460020004038210020B0B500AF8E
:10A2A00084235B000D4A19001000FFF745FF0C4B9B
:10A2B000DB680B4A127DD2B29C18084B1800FFF7DE
:10A2C00092FF03002370064B1B7DDBB20133DAB231
:10A2D000034B1A75C046BD46B0BDC04600200040C5
:10A2E0003821002080B586B000AF0200FB1D1A7037
:10A2F0000823FB1801221A700823FB18FA1D127894
:10A300001A720A4BDA680823FB185A60074B0022BE
:10A31000DA74064B5A68054B19680823FB181800B5
:10A320009047C046BD4606B080BDC04638210020DB
:10A3300080B586B000AF0200FB1D1A700823FB1821
:10A3400000221A700823FB18FA1D12781A720A4BA1
:10A350009A680823FB185A60074B00229A74064B30
:10A360005A68054B19680823FB1818009047C04627
:10A37000BD4606B080BDC0463821002080B584B0FF
:10A3800000AF80239B00624A19001000FFF7F8FE1F
:10A39000031E3FD092235B005D4A19001000FFF7B7
:10A3A000DCFE031E36D092235B00594A19001000D0
:10A3B000FFF7C2FE81239B00554A19001000FFF7EA
:10A3C000F1FE544B5B7D01225340DBB2002B04D0E5
:10A3D0004F4B04211800FFF725FF3B0002221A70A3
:10A3E0004B4B1800FFF7ECFE02003B00DA60494BD4
:10A3F000DA7C3B001A72474BDA683B005A60454BE7
:10A400000022DA74434B5A68424B19683B0018002B
:10A41000904731E03E4B04211800FFF7B1FE031EC8
:10A420002AD084235B003A4A19001000FFF795FEFA
:10A43000031E21D0FFF732FF364BDA7C354B1B7DF4
:10A44000DBB29A4218D1334B5B7D01225340DBB221
:10A45000002B04D02E4B04211800FFF7E3FE8123CC
:10A460009B002B4A19001000FFF79CFE294B1B7D17
:10A47000DBB21800FFF736FF8E235B00244A190079
:10A480001000FFF76AFE031E1AD0224B9B7C9AB283
:10A49000204B1B8A9BB29A4202D9FFF7D5FE0FE0F0
:10A4A0008E235B001A4A19001000FFF745FE194B76
:10A4B0009B7C002B04D0174B9B7C1800FFF738FFC8
:10A4C000A2235B00124A19001000FFF746FE031E8C
:10A4D00019D0A2235B000E4A19001000FFF72CFED2
:10A4E0000C4B5B7D002B04D0094B00211800FFF7BB
:10A4F00099FE084BDB7C002B05D0064B1B7DDBB2A5
:10A500001800FFF7EFFEC046BD4604B080BDC04650
:10A51000002000403821002080B500AF80235B057B
:10A520001B699BB21800BD4680BD000080B582B09B
:10A5300000AF0B4B5B697B607B68013308D0FFF792
:10A54000EBFF03001900786808F010F9030002E03F
:10A5500080235B055B691800BD4602B080BDC04624
:10A560000010001029DF7047C046180028DF704730
:10A57000C046180080B582B000AF78607B680322C7
:10A5800013405A425341DBB21800BD4602B080BDB1
:10A5900080B500AF0D4B1B78180000F06DFA0B4B27
:10A5A0005B78013BDAB2094B5A70084B1B780133D8
:10A5B000DAB2064B1A70054B1B780A2B02D1034BFB
:10A5C00000221A70C046BD4680BDC0465021002002
:10A5D00080B500AF0A4B1B781A0013009B009B1834
:10A5E0009B00074A9B1804331900002000F028FB49
:10A5F000FFF7CEFF002000F05FF9C046BD4680BDEA
:10A600005021002080B500AF054B00221A60054B99
:10A6100000221A6000F006FBC046BD4680BDC04661
:10A62000342200204422002080B582B000AF786040
:10A630000A4B1B781A0013009B009B189B00074ACB
:10A640009B181A1D7B681100180000F0F9FA04200D
:10A6500000F032F9C046BD4602B080BD5021002056
:10A6600080B582B000AF78607B68002B0DD0112BD5
:10A6700006D1084B1B6808221A43064B1A6005E0F6
:10A680007B681800FFF7D0FF00E0C046C046BD461B
:10A6900002B080BD4C22002080B584B000AFF860CD
:10A6A000B9607A607A68B968FB681800FFF75AFFEA
:10A6B00003001800FFF7D4FFC046BD4604B080BDBC
:10A6C000B0B582B000AF274B1B781A0013009B0077
:10A6D0009B189B00234A9B1804337B607B685C8833
:10A6E000FFF71AFF03009C4224D97B685B881C009B
:10A6F000FFF712FF0300E31A3B607B68DB687A68B0
:10A7000092889A183B68D3181D007B681A693B68C9
:10A71000D418FFF701FF03009B089BB21A00210029
:10A720002800FFF7B9FFFFF7F7FE03001A000E4BF2
:10A730001A6013E07B68DB687A6892889B181800BF
:10A740007B6819697B685B889B089BB21A00FFF7DE
:10A75000A3FF7B685B881A00034B1A60C046BD46A6
:10A7600002B0B0BD502100204422002080B500AFCF
:10A77000FFF7A6FFC046BD4680BD000090B585B07E
:10A7800000AF2B4B1B68012293431A00284B1A6021
:10A79000284B1B781A0013009B009B189B00254A2E
:10A7A0009B180433FB60FB68DB68BB60FFF7B4FEFB
:10A7B00003001900B86807F0D9FF03007B601E4B47
:10A7C0007A681A60FB685B881A00BB68D3185C1E45
:10A7D000FFF7A2FE03001900200007F0C7FF0300E7
:10A7E0003B607A683B689A4206D1114B1B68022293
:10A7F0001A430F4B1A6006E00D4B1B68022293436D
:10A800001A000B4B1A600D4B1B68002B08D1084B2C
:10A810001B680222134003D1022000F01BF902E062
:10A82000002000F017F9C046BD4605B090BDC046F7
:10A830004C2200205021002030220020282200201D
:10A8400080B582B000AF78607B681800FFF78EFE9D
:10A8500003001800FFF704FFC046BD4602B080BDEC
:10A8600080B500AF034B1B681800FFF7E9FFC04637
:10A87000BD4680BD3022002080B500AF0D4B1B7857
:10A88000012B0BD002DC002B05D010E0022B08D0EE
:10A89000032B09D00BE0FFF7B5FE08E0FFF766FFDA
:10A8A00005E0FFF76BFF02E0FFF7DAFFC046C046A6
:10A8B000BD4680BD2422002080B582B000AF0200DA
:10A8C000FB1D1A70044BFA1D12781A70FFF7D4FFA3
:10A8D000C046BD4602B080BD24220020B0B500AF06
:10A8E000FFF724FE03005C1EFFF716FE03005C4327
:10A8F000FFF712FE03001900200007F037FF0300E6
:10A900001800FFF79DFFC046BD46B0BDB0B500AF13
:10A91000FFF70CFE03005C1EFFF7FEFD0300634320
:10A920001C00FFF7F9FD03001A00084B1B68534396
:10A930001D00FFF7F1FD03009B089BB21A002900E0
:10A940002000FFF7A9FEC046BD46B0BD3022002062
:10A9500080B500AF034B1B681800FFF771FFC046BE
:10A96000BD4680BD30220020B0B584B000AF1F4B83
:10A970001B781A0013009B009B189B001B4A9B1816
:10A980000433FB60FB68DB68BB60FB685B881A0014
:10A99000BB68D318FA6892889C18FFF7BDFD0300C6
:10A9A0001900200007F068FF0B007B60FB685B88E4
:10A9B0001A00BB68D318FA6892889B181D00FFF72D
:10A9C000B5FD03005C1EFFF7A7FD030063431A00FB
:10A9D0007B68D3181900064B1B681A002800FFF784
:10A9E0005BFEC046BD4604B0B0BDC046502100204D
:10A9F0002C220020B0B500AF0C4B1B685C1EFFF78B
:10AA00008BFD030063431D00FFF790FD03005C1EF8
:10AA1000FFF782FD030063431900054B1B681A0012
:10AA20002800FFF739FEC046BD46B0BD30220020E9
:10AA30002822002080B500AF044B1B781A00044B7D
:10AA40009200D3589847C046BD4680BD25220020BD
:10AA5000DC2A020080B582B000AF0200FB1D1A7034
:10AA6000044BFA1D12781A70FFF7E4FFC046BD468A
:10AA700002B080BD2522002080B582B000AF786092
:10AA80001F497A6813009B009B189B00CB18043366
:10AA900000221A701A497A6813009B009B189B00C9
:10AAA000CB18063300221A8015497A6813009B00E0
:10AAB0009B189B00CB180C3301221A6010497A684E
:10AAC00013009B009B189B00CB18103300221A60C8
:10AAD0000B497A6813009B009B189B00CB1814331A
:10AAE00000221A6006497A6813009B009B189B009D
:10AAF000CB18083300221A80C046BD4602B080BD84
:10AB00005021002080B582B000AF0B4B00221A709C
:10AB1000094B00225A7000237B6006E07B68180016
:10AB2000FFF7AAFF7B6801337B607B68092BF5D9AF
:10AB3000C046BD4602B080BD5021002080B586B021
:10AB400000AFB9607A6019000F23FB18021C1A705D
:10AB50000C23FB180A1C1A80304B5B780A2B56D04A
:10AB60002E4B1B781A002D4B5B78D3183B613B6949
:10AB7000092B02D93B690A3B3B6128493A6913001A
:10AB80009B009B189B00CB1804330F22BA18127835
:10AB90001A7022493A6913009B009B189B00CB183E
:10ABA00014337A681A601D493A69082013009B0023
:10ABB0009B189B00CB181B18BA68043303CA03C345
:10ABC00016493A6913009B009B189B00CB1806336B
:10ABD0000C22BA1812881A8010493A6913009B0097
:10ABE0009B189B00CB1808332022BA1812881A80B1
:10ABF0000A4B5B780133DAB2084B5A70084B1B786A
:10AC0000002B01D100F0E0FB00237B6101E0042375
:10AC10007B617B691800BD4606B080BD50210020D5
:10AC20002422002080B500AF044B5B78002B01D0BC
:10AC300000F0CAFBC046BD4680BDC0465021002082
:10AC4000F0B587B002AF786039600F23FB183A681F
:10AC500012781A703B689A680D4913005B009B18C4
:10AC60009B005B58BB603B68083318003B681E695B
:10AC7000084B1B687D680F22BA1811780093BC68D6
:10AC800033002A00A047C046BD4605B0F0BDC0460F
:10AC9000382200204822002090B585B000AF1C4B20
:10ACA0001B781A0013009B009B189B00184A9B18E6
:10ACB0000433BB60BB68DB687B60BB685B881A00E1
:10ACC0007B68D318BA6892889B185C1EFFF724FC37
:10ACD00003001900200007F049FD03003B600D4B05
:10ACE0001B68002B09D00C4B1A683B689A4204D1B0
:10ACF0000F23FB1801221A7003E00F23FB18002218
:10AD00001A700F23FB181B781800BD4605B090BDC4
:10AD1000502100202C2200203022002080B582B05B
:10AD200000AF0C4B1B781A0013009B009B189B0074
:10AD3000084A9B1804337B607B681B78042B02D085
:10AD4000FFF746FC01E000F02FFBC046BD4602B015
:10AD500080BDC0465021002080B500AFFFF7DEFF68
:10AD6000C046BD4680BD000090B585B000AF1F4B0A
:10AD70001B781A0013009B009B189B001B4A9B1812
:10AD80000433BB60BB68DB687B60BB685B881A0010
:10AD90007B68D318BA6892889B185C1EFFF7BCFBCF
:10ADA00003001900200007F0E1FC03003B60104B9A
:10ADB0001A683B689A4208D30D4B1A683B689A425E
:10ADC00008D10C4B1B68002B04D10F23FB18012268
:10ADD0001A7003E00F23FB1800221A700F23FB18D0
:10ADE0001B781800BD4605B090BDC046502100201C
:10ADF000302200202C22002080B500AF074B1B68BA
:10AE0000082293431A00054B1A60054B1B78180063
:10AE1000FFF720FEC046BD4680BDC0464C22002044
:10AE20002522002080B500AF184B1B680822134074
:10AE300026D1FFF731FF031E0CD0154B00221A60FC
:10AE4000124B1B6801221A43104B1A600020FFF7B7
:10AE500001FE17E0FFF788FF031E06D00C4B00220F
:10AE60001A600220FFF7F6FD0CE00A4B1B68002B6E
:10AE700003D00320FFF7EEFD04E0FFF76DFF01E0D4
:10AE8000FFF7BAFFC046BD4680BDC0464C22002039
:10AE9000282200202C22002080B500AF064B1B6822
:10AEA0000822134002D1FFF757FF01E0FFF7A4FF8C
:10AEB000C046BD4680BDC0464C22002080B500AFD4
:10AEC0001C4B1B68082213402ED11B4B1B685A1CBD
:10AED000194B1A60194B1B68002B03D00420FFF795
:10AEE000B9FD23E0FFF740FF031E03D00220FFF768
:10AEF000B1FD1BE0124B1B68002B12D00D4B1B68E1
:10AF00000122134009D10B4B1B6801221A43094B44
:10AF10001A600020FFF79EFD08E00320FFF79AFD6E
:10AF200004E0FFF719FF01E0FFF766FFC046BD46EA
:10AF300080BDC0464C220020302200202822002064
:10AF40002C22002080B500AF0C4B1B680822134058
:10AF50000ED10A4B1B680222134005D0074B1B6819
:10AF600001221A43054B1A600220FFF773FD01E02E
:10AF7000FFF742FFC046BD4680BDC0464C220020C0
:10AF800080B500AF064B1B680822134003D1012097
:10AF9000FFF760FD01E0FFF72FFFC046BD4680BD13
:10AFA0004C22002080B500AF044B1B781A00044BE4
:10AFB0009200D3589847C046BD4680BD2522002048
:10AFC000F02A020080B500AF074B1B6808229343AC
:10AFD0001A00054B1A60054B1B781800FFF76CFC34
:10AFE000C046BD4680BDC0464C2200202422002021
:10AFF00080B500AF104B1B680822134016D10F4BD1
:10B000001B685A1C0D4B1A60FFF7AEFE03001A00B6
:10B0100001235340DBB2002B02D0FFF77FFE07E095
:10B02000074B1B781800FFF747FC01E0FFF7CAFF4A
:10B03000C046BD4680BDC0464C22002030220020C4
:10B040002422002080B582B000AF144B1B68082278
:10B0500013401DD1124B1B781A0013009B009B1844
:10B060009B000F4A9B1804337B607B685A880D4B0A
:10B070001B689BB2D31A9AB27B685A807B685B8844
:10B08000002B02D1FFF7A4FA04E0FFF719FB01E05F
:10B09000FFF798FFC046BD4602B080BD4C2200209D
:10B0A000502100204422002080B500AF0A4B1B78BD
:10B0B000022B0AD0032B05D0012B00D008E0FFF7AC
:10B0C000C1FF05E0FFF794FF02E0FFF76BFFC0460A
:10B0D000C046BD4680BDC0462422002080B500AFDA
:10B0E0000F4B1B685A1C0E4B1A600D4B1B68032B31
:10B0F0000FD00C4B1B78022B05D00A4B1B78180085
:10B10000FFF7DAFB08E0084B1B781800FFF7A2FCFA
:10B1100002E00D20FFF788FAC046BD4680BDC0465C
:10B1200034220020242200202522002080B582B075
:10B1300000AF78600F4B1B78002B17D00D4B1B789E
:10B14000042B13D07B68022B02D0032B03D00DE01D
:10B15000FFF7AAFF0AE0084B1B680822134002D140
:10B16000FFF7BCFF01E0FFF79FFFC046C046BD46AA
:10B1700002B080BD242200204C22002090B585B072
:10B1800000AF0200BB1D1A803B1D0A1C1A80FFF78E
:10B19000C3F903001A003B1D1B881100180007F0BB
:10B1A000E5FA03009BB2FB60FFF7B6F903001A0053
:10B1B000BB1D1B881100180007F0D8FA03009BB2D2
:10B1C000BB60FA68BB689A4208D13B1D1A88BB1D58
:10B1D0001B88D31A9A080D4B1A6013E0FFF79CF9ED
:10B1E00003001C00FFF798F903001A00BB1D1B8821
:10B1F0001100180007F040FB0B009BB2E31A9A08FD
:10B20000024B1A60C046BD4605B090BD2C220020FE
:10B2100090B589B000AF5F4B1B781A0013009B00FC
:10B220009B189B005B4A9B180433FB61FB69DB683E
:10B23000BB61FB699A681623F918574813005B0035
:10B240009B189B00C31808331B880B80FB699A6806
:10B250001423F918504813005B009B189B00C31877
:10B260000A331B880B80FB699A684B4913005B000B
:10B270009B189B00CB1804331B683B61FFF74CF90C
:10B2800003001A00BB691100180007F0F5FA0B0063
:10B290001A000F23FB1851424A411A701623FB185B
:10B2A0001B881422BA18128853431A003B69D3181A
:10B2B000BB60FB695B881A00BB69D318FA69928886
:10B2C0009B187B60354B00221A600F23FB181B78FC
:10B2D000002B06D0FB695C88FFF71EF903009C4237
:10B2E00010D00F23FB181B78002B07D07A68BB689F
:10B2F0009A4203D1FB699B88002B03D0FB699B68B2
:10B30000022B0ED1FFF708F903001900B86907F006
:10B310002DFA03001A00224B1A600320FFF7CCFA23
:10B3200034E0FB699B881A00BB69D418FFF7F4F876
:10B3300003001900200007F09FFA0B009A08194B30
:10B340001A60FFF7E9F803001A007B681100180083
:10B3500007F092FA0B001A00FB1C51424A411A7086
:10B360007A68BB689A420ED0FB1C1B7801225340BE
:10B37000DBB2002B07D07B689BB2BA6892B2110097
:10B380001800FFF7FBFE0220FFF796FAC046BD4605
:10B3900009B090BD50210020382200202C2200202E
:10B3A000302200202822002080B500AF0120FFF7C6
:10B3B00083FAC046BD4680BD80B500AFFFF728FFC9
:10B3C000C046BD4680BD000080B582B000AF134BC3
:10B3D0001B781A0013009B009B189B000F4A9B18B8
:10B3E00004337B607B685B881A000D4B1A607B68B6
:10B3F0001B78032B07D0042B08D0012B00D008E0CA
:10B40000FFF7D2FF05E0FFF703FF02E0FFF7D4FFED
:10B41000C046C046BD4602B080BDC0465021002097
:10B420004822002090B583B000AFFFF76BFB264B9E
:10B4300000221A80FFF77AF803009C1EFFF76CF8D1
:10B44000030063431A00214B1A60214B00221A604B
:10B4500000237B601EE01F497A6813005B009B1885
:10B460009B0000225A501B497A6813005B009B180E
:10B470009B00CB18083300221A8016497A68130003
:10B480005B009B189B00CB180A3300221A807B6854
:10B4900001337B607B68002BDDD00F4B00221A70DC
:10B4A0000E4B00221A600E4B00221A600D4B002238
:10B4B0001A600B4B1B6804221A43094B1A600023C5
:10B4C0001800BD4603B090BD1C22002020220020A1
:10B4D00030220020382200202422002034220020A4
:10B4E0004C22002044220020B0B584B000AF786028
:10B4F00039605A4B1B680422134001D10823A9E08C
:10B500007B68002B01D10E23A4E03B68002B01D106
:10B510000E239FE07B681B68002B01D10E2399E06E
:10B520007B689C88FEF7F8FF03009C4203D87B6889
:10B530009B880F2B01D807238CE07B68DB88002BCE
:10B5400013D07B68DB881A007B689B8853431A0002
:10B55000434B1B68D418FEF7E9FF03005D1EFEF79E
:10B56000DBFF03006B439C4201D9072372E07B6839
:10B570009B88032213409BB2002B01D0072369E074
:10B58000384B1B88012B01D1042363E0354B1B880A
:10B590001A003B681A60324B1A683B685A60314B9C
:10B5A0001B8818003B685A682F4903005B001B1872
:10B5B0009B00CB1804331A602A4B1B8818007B6849
:10B5C0001968294A03005B001B189B009950254B02
:10B5D0001B8819007B689888234A0B005B005B1866
:10B5E0009B00D3180833021C1A801E4B1B881900BD
:10B5F0007B68D8881C4A0B005B005B189B00D31843
:10B600000A33021C1A807B689B881A007B68DB88DF
:10B6100053431C00FEF780FF0300E3185C1EFEF797
:10B620007BFF03001900200007F02AF90300FB60EC
:10B63000FEF772FF03001A00FB685A43084B1B68B1
:10B64000D218074B1A60074B1B8801339AB2054B7F
:10B650001A8000231800BD4604B0B0BD4C22002063
:10B66000202200201C22002038220020B0B586B005
:10B6700000AFF8607A600A23FB180A1C1A80384B66
:10B680001B680422134001D1082364E0FB68002BEF
:10B6900001D10E235FE07B68002B01D10E235AE01D
:10B6A000FB681B68002B09D1FB681A682D49130041
:10B6B0005B009B189B005B58002B01D107234AE0DD
:10B6C0001023FB18FA6803CA03C31023FB18596838
:10B6D0000A23FB181888FB681A68224C13005B00C9
:10B6E0009B189B00E31808331B884343CA18102398
:10B6F000FB185A601023FB1859681023FB181A68AE
:10B70000184813005B009B189B00C318043318688B
:10B710001023FB181A68134C13005B009B189B0046
:10B72000E3180A331B881D001023FB181A680D4C00
:10B7300013005B009B189B00E31808331B886B43C6
:10B74000C318994201D3072305E07B681022BA1879
:10B7500003CA03C300231800BD4606B0B0BDC046EF
:10B760004C22002038220020B0B586B002AFF8602D
:10B77000B9601900BB1D1A803B1D0A1C1A80524B70
:10B780001B680422134001D1082398E0BB68002BFA
:10B7900001D10E2393E0FB68002B01D10E238EE034
:10B7A000FB681B68002B09D1FB681A684749130026
:10B7B0005B009B189B005B58002B01D107237EE0A8
:10B7C000FB685968FB681A68404813005B009B18C7
:10B7D0009B00C31804331868FB681A683B4C1300BD
:10B7E0005B009B189B00E3180A331B881D00FB6855
:10B7F0001A68364C13005B009B189B00E318083353
:10B800001B886B43C318994201D3072357E0BB1D24
:10B810001B88002B0DD0FB681A682C4913005B00B5
:10B820009B189B00CB1808331B88BA1D12889A42BC
:10B8300001D9072343E0BB1D1A883B1D1B88D11883
:10B84000FB681A68214813005B009B189B00C31813
:10B8500008331B88994201DD072330E0BB681800DC
:10B86000FEF788FE03001A0001235340DBB2002BD1
:10B8700017D13B1D1B881800FEF77CFE03001A0041
:10B8800001235340DBB2002B0BD1FB685B6818002F
:10B89000FEF770FE03001A0001235340DBB2002BB9
:10B8A00001D010230BE0BB1D1888BA68F9683B1D56
:10B8B0001B88009303000120FFF740F903001800E4
:10B8C000BD4604B0B0BDC0464C2200203822002046
:10B8D000B0B586B002AFF860B9601900BB1D1A8020
:10B8E0003B1D0A1C1A80524B1B680422134001D1D5
:10B8F000082398E0BB68002B01D10E2393E0FB687E
:10B90000002B01D10E238EE0FB681B68002B09D1B0
:10B91000FB681A68474913005B009B189B005B5843
:10B92000002B01D107237EE0FB685968FB681A6889
:10B93000404813005B009B189B00C3180433186831
:10B94000FB681A683B4C13005B009B189B00E318D4
:10B950000A331B881D00FB681A68364C13005B0015
:10B960009B189B00E31808331B886B43C31899424C
:10B9700001D3072357E0BB1D1B88002B0DD0FB68AC
:10B980001A682C4913005B009B189B00CB180833E6
:10B990001B88BA1D12889A4201D9072343E0BB1DB8
:10B9A0001A883B1D1B88D118FB681A6821481300B0
:10B9B0005B009B189B00C31808331B88994201DD6C
:10B9C000072330E0BB681800FEF7D4FD03001A001F
:10B9D00001235340DBB2002B17D13B1D1B881800FD
:10B9E000FEF7C8FD03001A0001235340DBB2002B11
:10B9F0000BD1FB685B681800FEF7BCFD03001A0062
:10BA000001235340DBB2002B01D010230BE0BB1D00
:10BA10001888BA68F9683B1D1B880093030004204E
:10BA2000FFF78CF803001800BD4604B0B0BDC04657
:10BA30004C22002038220020B0B586B002AFF8605A
:10BA4000B9601900BB1D1A803B1D0A1C1A805B4B94
:10BA50001B680422134001D10823AAE0BB68002B15
:10BA600001D10E23A5E0FB68002B01D10E23A0E03D
:10BA7000BB681B68002B09D1BB681A6850491300CA
:10BA80005B009B189B005B58002B01D1072390E0C3
:10BA9000BB685968BB681A68494813005B009B186B
:10BAA0009B00C31804331868BB681A68444C130021
:10BAB0005B009B189B00E3180A331B881D00BB68C2
:10BAC0001A683F4C13005B009B189B00E318083377
:10BAD0001B886B43C318994201D3072369E0BB1D40
:10BAE0001B88002B0DD0BB681A68354913005B001A
:10BAF0009B189B00CB1808331B88BA1D12889A42EA
:10BB000001D9072355E0BB1D1A883B1D1B88D1189E
:10BB1000BB681A682A4813005B009B189B00C31877
:10BB200008331B88994201DD072342E0FB681800B7
:10BB3000FEF720FD03001A0001235340DBB2002B67
:10BB400017D13B1D1B881800FEF714FD03001A00D7
:10BB500001235340DBB2002B0BD1BB685B6818009C
:10BB6000FEF708FD03001A0001235340DBB2002B4F
:10BB700001D010231DE03B1D1A88BB685B68D318F9
:10BB80001900BB1D1A88FB68180006F074FFBB681B
:10BB90001A680B4913005B009B189B005C58BB1D87
:10BBA0001B88FA68B8680093130000220221A0479E
:10BBB00000231800BD4604B0B0BDC0464C22002092
:10BBC00038220020B0B588B002AF78600A00BB1CF4
:10BBD0001A80644B1B680422134001D10823BCE087
:10BBE0007B68002B01D10E23B7E07B681B68002B1C
:10BBF00009D17B681A685C4913005B009B189B00A5
:10BC00005B58002B01D10723A7E07B6859687B684C
:10BC10001A68554813005B009B189B00C318043337
:10BC200018687B681A68504C13005B009B189B00D7
:10BC3000E3180A331B881D007B681A684A4C1300FE
:10BC40005B009B189B00E31808331B886B43C318E9
:10BC5000994201D3072380E07B685B681800FEF7F8
:10BC600089FC03001A0001235340DBB2002B01D0F2
:10BC7000102372E07B6859687B681A683A481300A1
:10BC80005B009B189B00C31804331B68C81A7B68B1
:10BC90001A68354913005B009B189B00CB180833CA
:10BCA0001B88190006F0E8FD0B1E01D0072354E0A5
:10BCB0007B681A682C4913005B009B189B00CB180B
:10BCC00008331A88BB1C1B881100180006F0D4FD2D
:10BCD0000B009BB2002B03D1BB1C1B88002B01D196
:10BCE00007233AE07B681A681F4913005B009B1822
:10BCF0009B00CB1808331B8818007B681A681A4908
:10BD000013005B009B189B00CB180A331B8843432E
:10BD10007B617B685A68BB1C1B88D3183B617B68BE
:10BD20001A68114913005B009B189B00CB18043361
:10BD30001A687B69D318FB603A69FB689A4201D99B
:10BD400007230AE0BB1C1A887968002300931300BC
:10BD500000220320FEF7F2FE03001800BD4606B0E5
:10BD6000B0BDC0464C2200203822002080B582B0F1
:10BD700000AF78600A4B1B680422134001D10823EE
:10BD80000AE07B68002B01D10E2305E0054B5B78B0
:10BD90001A007B681A6000231800BD4602B080BDFF
:10BDA0004C2200205021002080B584B000AF786084
:10BDB00039607B68032B16D8A023DA05A223DB00A9
:10BDC000D358DB43FB600C4B7A689200D3580122B6
:10BDD0009A4013001A00FB6813405A1E9341DAB2CE
:10BDE0003B681A7002E03B6800221A7000231800BA
:10BDF000BD4604B080BDC046102B020080B586B0A1
:10BE000000AF0200FB1D1A70BB1D0A1C1A7017231D
:10BE1000FB1800221A7000233B6102E03B690133EA
:10BE20003B613B69032B07D8444B3A699200D258D7
:10BE3000FB1D1B789A42F1D13B69032B69D8BB1DCE
:10BE40001B78012B04D0022B56D0002B36D060E09B
:10BE50001723F9183A483A6913005B009B181B5CDA
:10BE60000B7037493A6913005B009B18CB180133FC
:10BE70001B78002B14D03348334B1A6813009B00F7
:10BE80009B185B001900314B1A00FDF7CFFA030035
:10BE9000FB60FB68002B03D12C4BFA1D12781A7043
:10BEA00027493A6913005B009B18CB1802331978B5
:10BEB000274A3B69D3180A1C1A702AE0214B180044
:10BEC000FDF7EEFA224A3B69D31819781C483A6903
:10BED00013005B009B18C31802331B78994217D1DB
:10BEE0001723F91816483A6913005B009B18C3180A
:10BEF00002331B780B700BE01723F91810483A69CE
:10BF000013005B009B18C31801331B780B7000E013
:10BF1000C0461723FB181B78002B0AD00D4B1B685B
:10BF2000002B06D00B4B1B681722BA181278100092
:10BF30009847C046BD4606B080BDC046102B0200E3
:10BF4000A4220020B022002054220020D022002071
:10BF5000D4220020A022002080B582B000AF7860FB
:10BF60007B681B7802211800FFF748FFC046BD46DA
:10BF700002B080BD90B589B000AF0200FB1D1A7001
:10BF80000023FB610023BB61FB1D1B78172B00D92D
:10BF900058E39A00E24BD3181B689F46A023DA05AA
:10BFA000E04B1B68D943F0235B041940A123DB005D
:10BFB000D150A023DB05DC4A00219950DB4BFA1D50
:10BFC00012781A703FE3A023DA05D64B1B68D943D9
:10BFD000E0235B041940A123DB00D150A023DB0543
:10BFE000D14A00219950A023DB05D14A9B58F02269
:10BFF00052045A4080239B03134016D0A023DA0535
:10C00000A123DB0080218903D150A023DB05C64A90
:10C0100000219950FB1D1B78022B02D1E123DB008C
:10C0200001E0FA231B01BB6114E0A023DB05BE493C
:10C03000802292035A50A023DA05A123DB000021BD
:10C04000D150FB1D1B78022B01D1C82301E0C8236E
:10C050005B00BB61B54BFA1D12781A70B54CBB6919
:10C060006421180006F082FB03001A00B24B1B6823
:10C070005343002219002000FDF7D8F90300FB61AB
:10C08000E1E2A023DA05A74B1B68D943E0235B0458
:10C090001940A123DB00D150A023DB05A24A0021D7
:10C0A0009950A023DB05A24A9B58F02252045A4023
:10C0B00080239B03134016D0A023DA05A123DB00C5
:10C0C00080218903D150A023DB05974A0021995094
:10C0D000FB1D1B78032B02D1C8239B0001E0FA2330
:10C0E0001B01BB6114E0A023DB058F498022920372
:10C0F0005A50A023DA05A123DB000021D150FB1DFB
:10C100001B78032B01D1C82301E0C8235B00BB616E
:10C11000864BFA1D12781A70864CBB696421180090
:10C1200006F024FB03001A00834B1B6853430022D4
:10C1300019002000FDF77AF90300FB6183E2A023D8
:10C14000DA05784B1B68D943E0235B041940A1232F
:10C15000DB00D150A023DB05734A00219950A023B6
:10C16000DB05734A9B58F02252045A4080239B03FC
:10C1700013400FD0A023DA05A123DB00802189031F
:10C18000D150A023DB05684A00219950FA231B01F6
:10C19000BB610EE0A023DB056349802292035A5065
:10C1A000A023DA05A123DB000021D150C8235B00C6
:10C1B000BB615E4BFA1D12781A705E4CBB6964213C
:10C1C000180006F0D3FA03001A005B4B1B685343B8
:10C1D000002219002000FDF729F90300FB6132E27B
:10C1E000A023DA054F4B1B68D943E0235B041940B9
:10C1F000A123DB00D150A023DB054B4A002199503D
:10C20000A023DB054A4A9B58F02252045A4080235F
:10C210009B03134015D0A023DA05A123DB00802166
:10C220008903D150A023DB053F4A00219950FB1D13
:10C230001B78052B01D1C82301E0FA231B01BB6148
:10C2400014E0A023DB053849802292035A50A02332
:10C25000DA05A123DB000021D150FB1D1B78052B43
:10C2600001D1C82301E0C8235B00BB612F4BFA1D3D
:10C2700012781A702F4CBB696421180006F076FA08
:10C2800003001A002C4B1B685343002219002000A6
:10C29000FDF7CCF80300FB61D5E1A023DA05214BC3
:10C2A0001B68D943E0235B041940A123DB00D15074
:10C2B000A023DB051C4A00219950A023DB051C4A62
:10C2C0009B58F02252045A4080239B0313400CD009
:10C2D000A023DA05A123DB0080218903D150A0230C
:10C2E000DB05114A002199500BE0A023DB050E4924
:10C2F000802292035A50A023DA05A123DB000021FB
:10C30000D1500A4BFA1D12781A700A480A4B1B6862
:10C3100000221900FDF78AF80300FB6193E1C04693
:10C32000402B02005C2200200C050000502200205F
:10C33000040500006022002054220020A023DA051A
:10C34000C34B1B68D943E0235B041940A123DB00E6
:10C35000D150A023DB05BF4A00219950A023DB0563
:10C36000BC49802292035A50A023DA05A123DB00A6
:10C370000021D150B84BFA1D12781A7063E1A02346
:10C38000DB05B64A9B587B61A023DA057B69D9435C
:10C390008023DB031940A123DB00D150A023DB0560
:10C3A00079698022D2030A40AA495A50AC48AD4B61
:10C3B0001B6800221900FDF739F80300FB6142E118
:10C3C000A023DB05A54A9B583B61A023DA053B6906
:10C3D000D9438023DB031940A123DB00D150A023E4
:10C3E000DB0539698022D2030A409A495A509C4899
:10C3F0009C4B1A6813009B009B1800221900FDF744
:10C4000015F80300FB611EE1A023DB05934A9B584E
:10C41000FB60A023DA05FB68D9438023DB031940C6
:10C42000A123DB00D150A023DB05F9688022D203D1
:10C430000A4088495A508A488A4B1B6800221900D2
:10C44000FCF7F4FF0300FB61FDE0A023DB05834A5A
:10C450009B58BB60A023DA05BB68D9438023DB036C
:10C460001940A123DB00D150A023DB05B96880224D
:10C47000D2030A4077495A5079487A4B1A68130018
:10C480009B009B1800221900FCF7D0FF0300FB6102
:10C49000D9E0A023DB056F49F02252045A50A023B3
:10C4A000DA05A123DB000021D1506B4BFA1D127875
:10C4B0001A70C8E06C4B1800FCF7F2FF0300FB6138
:10C4C000FB1D1B781122D31ABB61BB69002B2DD039
:10C4D000FB69002B2AD15E4B802212041A60BB69D3
:10C4E000012B13D9604CBB69C82253436421180047
:10C4F00006F03CF903001A005A4B1B685343002214
:10C5000019002000FCF792FF0300FB61A023DA056D
:10C510004F4B1968F0235B040B404E495350A02346
:10C52000DA05A123DB000021D1508CE0A023DA053D
:10C53000474B1968F0235B041940A123DB00D1505D
:10C54000A023DB05434A00219950414B00221A6089
:10C5500079E0A023DA05A123DB00F0214904D150C2
:10C56000A023DB053B4A002199503B4BFA1D127872
:10C570001A7068E0A023DA05A123DB00E02149045A
:10C58000D150A023DB05334A00219950A023DB05BD
:10C590003049802292035A50A023DA05A123DB0000
:10C5A0000021D1502C4BFA1D12781A704BE0A023B9
:10C5B000DA05A123DB00D0214904D150A023DB05FB
:10C5C000244A00219950A023DB0522498022D2036E
:10C5D0005A50A023DA05A123DB000021D1501E4BC5
:10C5E000FA1D12781A702EE0A023DA05A123DB00D1
:10C5F000C0214904D150A023DB05164A00219950DF
:10C60000A023DB051349C022D2035A50A023DA0528
:10C61000A123DB000021D1500F4BFA1D12781A70B4
:10C6200011E0A023DB050B49F02252045A50A0234D
:10C63000DA05A123DB000021D150074BFA1D127847
:10C640001A7000E0C046FB691800BD4609B090BDF5
:10C650005C2200200C050000502200200405000090
:10C6600060220020542200208022002080B582B069
:10C6700000AF7860064B1B680122134004D0054BC5
:10C680001B781800FFF776FCC046BD4602B080BD9F
:10C69000582200205022002080B584B000AF78607E
:10C6A000A023DB050C4A9B58FB60A023DA05FB683E
:10C6B000D94380231B041940A123DB00D150A023C0
:10C6C000DB05F968802212040A4004495A50C0462A
:10C6D000BD4604B080BDC046040500000C05000046
:10C6E00080B584B000AF0200FB1D1A700023FB6010
:10C6F000084B1B680122134006D0FB1D1B78180055
:10C70000FFF738FC0300FB60FB681800BD4604B06F
:10C7100080BDC0465822002080B586B000AFF860CA
:10C72000B9607A6000237B61384BBA681A60384B75
:10C73000FA681A60374B7A681A60FB680222134065
:10C7400031D000233B610AE03B690122012118003E
:10C7500000F072F803007B613B6901333B613B6988
:10C76000032B02D87B69002BEED07B69002B08D10C
:10C77000BB685A08284B04211800FBF715FE03007C
:10C780007B617B69002B03D1FBF790FE03007B618B
:10C790007B69002B07D1214A214B00211800FCF7AF
:10C7A000F5FD03007B61FB680122134012D0A0233A
:10C7B000DA05A123DB00F0214904D150A023DB05D9
:10C7C000184A00219950A023DA05A323DB00F021A9
:10C7D0004904D1507B69002B07D1134A134B002128
:10C7E0001800FCF7D3FD03007B617B69002B07D1A8
:10C7F0000F4A104B01211800FCF7C8FD03007B61B4
:10C800007B691800BD4606B080BDC046542200209A
:10C8100058220020A0220020202B020059BF010036
:10C820000C2B02000C0500006DC60100042B020059
:10C8300099C60100082B020080B584B000AF786073
:10C8400008001100FB1C021C1A70BB1C0A1C1A7089
:10C850000023FB607B68032B3BD8BB1C1B78012BA0
:10C860000BD1FB1C1B78012B04D17B68DBB20D3391
:10C87000DAB200E00022BB1C1A70FB1C1B78012BF3
:10C8800004D0022B0BD0002B14D01EE014497A6880
:10C8900013005B009B18BA1C12785A541BE0104915
:10C8A0007A6813005B009B18CB180133BA1C12780E
:10C8B0001A7010E00A497A6813005B009B18CB18C5
:10C8C0000233BA1C12781A7005E00723FB60C046D9
:10C8D00001E00723FB60FB681800BD4604B080BD83
:10C8E000A422002080B586B000AF786000237B6171
:10C8F0002DE0A023DB051A4A796989008A58C132E4
:10C90000FF329200D3583B6101227B699A401300A9
:10C910001A007B68134001D0032300E00023FB6072
:10C920003B69104A13403B61FB681B043A6913439F
:10C930003B61A023DB050A4A796989008A58C13224
:10C94000FF3292003969D1507B6901337B617B6989
:10C95000032BCED900231800BD4606B080BDC046CB
:10C96000102B0200FFFFFCFF80B582B000AF012258
:10C9700000210020FFF760FF03007B607B68002B35
:10C9800004D07B68072B01D07B681EE007220221C0
:10C990000120FFF751FF03007B607B68002B04D070
:10C9A0007B68072B01D07B680FE004220221002066
:10C9B000FFF742FF03007B607B68002B04D07B689D
:10C9C000072B01D07B6800E000231800BD4602B0B1
:10C9D00080BD80B582B000AF012202210020FFF7A8
:10C9E0002BFF03007B607B68002B04D07B68072B48
:10C9F00001D07B681EE0072202210120FFF71CFF07
:10CA000003007B607B68002B04D07B68072B01D080
:10CA10007B680FE00A2200210020FFF70DFF0300D2
:10CA20007B607B68002B04D07B68072B01D07B6880
:10CA300000E000231800BD4602B080BD80B584B080
:10CA400000AF78600B23FB1819000020FFF7ACF94A
:10CA50000300FB60FB68002B01D0FB6822E00A2387
:10CA6000FB1819000120FFF79FF90300FB60FB682A
:10CA7000002B01D0FB6815E00A23FB181B78002B64
:10CA800003D07B6802221A700BE00B23FB181B7883
:10CA9000002B03D07B680B221A7002E07B68002217
:10CAA0001A7000231800BD4604B080BD80B582B066
:10CAB00000AF0320FFF716FF03007B607B68002BAD
:10CAC00004D07B68062B01D07B6800E000231800AF
:10CAD000BD4602B080BD000080B584B000AF786074
:10CAE0007B681B88102B02D0112B1AD033E01C4B13
:10CAF0001B68002B0FD1FFF737FF0300FB60FB68BB
:10CB0000002B08D0174B1B68002B04D0154B1B685B
:10CB1000FA6810009847124B1B685A1C104B1A6099
:10CB200019E00F4B1B685A1E0D4B1A600C4B1B680B
:10CB3000002B0FD1FFF74DFF0300FB60FB68002BBC
:10CB400008D0084B1B68002B04D0064B1B68FA6802
:10CB500010009847C046C046BD4604B080BDC046E0
:10CB6000DC220020D822002080B584B000AF78609D
:10CB700039600023FB600F4B7A681A603B68002B1A
:10CB80000AD03B681800FFF759FF0300FB60FB6801
:10CB9000002B01D0FB6808E0074B1B68002B03D17A
:10CBA000FFF717FF0300FB60FB681800BD4604B0E9
:10CBB00080BDC046D8220020DC22002076DF7047EE
:10CBC000C046180078DF7047C04618007ADF70470B
:10CBD000C04618007CDF7047C046180060DF704711
:10CBE000C04618003CDF7047C046180048DF704759
:10CBF000C046180080B582B000AF02003960BB1D8E
:10CC00001A80BB1D1B883A6803481900FBF77EFC9D
:10CC1000C046BD4602B080BDEFBEADDE80B582B07D
:10CC200000AF154A154B11001800FCF77DFC0200FF
:10CC3000FB1D1A70FB1D1A78114B1100180002F031
:10CC4000D5FC03003B603B68002B10D03B68082BF1
:10CC50000DD03B680B4A934209D03B680A4A934285
:10CC600005D03B68002200211800FBF74FFCC046AE
:10CC7000BD4602B080BDC046482300205823002096
:10CC8000E0220020043000000134000080B582B0B2
:10CC900000AF7860FFF7C2FFC046BD4602B080BD5E
:10CCA00080B584B000AF78601E4A1F4B1100180099
:10CCB000FCF73AFC02000E23FB181A801B4B1B6882
:10CCC0005A1C1A4B1A600E23FB181A88184B1100B5
:10CCD000180003F05FFD0300BB60BB68002B10D0A1
:10CCE000BB68082B0DD0BB68124A934209D0BB68C1
:10CCF000114A934205D0BB68002200211800FBF7BF
:10CD000005FC0A4B1B680321180005F0B5FD0B005C
:10CD10005A1E9341DAB2094B1A70C046BD4604B0A0
:10CD200080BDC04660230020702300201424002012
:10CD3000F8220020043000000134000062200020AE
:10CD400080B584B000AF78600C4B1B78002B11D0FD
:10CD50000B4A0C4B11001800FCF7E6FB02000E23F7
:10CD6000FB181A800E23FB181A88074B11001800B5
:10CD700003F06EFDC046BD4604B080BD62200020B9
:10CD80007823002088230020F822002080B582B07C
:10CD900000AF78600C4B1B785A1E9341DBB2012226
:10CDA0005340DBB21A1C01231340DAB2064B1A704F
:10CDB000054B1A78054B1100180003F07AFDC046A8
:10CDC000BD4602B080BDC04618240020F8220020D5
:10CDD00080B588B000AF314A002305210020FCF760
:10CDE00051FA0300FB61FB69BB61BB69002B05D0F5
:10CDF000BB69002200211800FBF788FB284A294B59
:10CE000001211800FCF7C2FA03007B617B693B61DA
:10CE10003B69002B05D03B69002200211800FBF77D
:10CE200075FB214A214B01211800FCF7AFFA0300E2
:10CE30007B617B69FB60FB68002B05D0FB680022EF
:10CE400000211800FBF762FB194A1A4B0121180058
:10CE5000FCF79CFA03007B617B69BB60BB68002B1D
:10CE600005D0BB68002200211800FBF74FFB124AD7
:10CE7000124B01211800FCF789FA03007B617B69E2
:10CE80007B607B68002B05D07B68002200211800A6
:10CE9000FBF73CFBC046BD4608B080BD1C2400200B
:10CEA0008DCC0100A02B0200A1CC0100A42B02001C
:10CEB00041CD0100A82B02008DCD0100AC2B02005A
:10CEC00080B588B000AF3B1D1A780F218A43111C32
:10CED00001220A431A703B1D1A780F210A40111CC7
:10CEE00010220A431A702A493B1D0A221800FFF734
:10CEF00071FE0300FB61FB69BB61BB69002B05D0C0
:10CF0000BB69002200211800FBF700FB214B180031
:10CF1000FFF758FE0300FB61FB697B617B69002B17
:10CF200005D07B69002200211800FBF7EFFA0823E7
:10CF3000FB18082200211800FBF768F90823FB18EA
:10CF4000A02252001A800823FB18822292005A80E5
:10CF50000823FB1800229A800823FB18C8225200DD
:10CF6000DA800823FB181800FFF730FE0300FB618E
:10CF7000FB693B613B69002B05D03B690022002126
:10CF80001800FBF7C3FAC046BD4608B080BDC046D6
:10CF9000B02B02004103000080B5A0B000AFFB1D24
:10CFA00003221A705C23FB18142200211800FBF7DF
:10CFB0002DF95C23FB1800221A605C23FB18012268
:10CFC0001A715C23FB18FA1D9A605C23FB181A7B0C
:10CFD0000F218A43111C01220A431A735C23FB1898
:10CFE0001A7B0F210A40111C10220A431A735C237A
:10CFF000FB185A7B0F218A435A735C23FB185A7B18
:10D000000F210A405A735C23FB189A7B0F218A4335
:10D010009A735C23FB189A7B0F210A409A735C2356
:10D02000FB18DA7B0F218A43111C01220A43DA73B1
:10D030005C23FB18DA7B0F210A40111C10220A43E3
:10D04000DA735C23FB181A7C0F218A431A745C2361
:10D05000FB181A7C0F210A401A745C23FA18624BE1
:10D060001100180003F040FB0300FB67FB6FBB6778
:10D07000BB6F002B05D0BB6F002200211800FBF70F
:10D0800045FA4823FB18142200211800FBF7BEF8CC
:10D090004823FB185A7B0F218A43111C01220A43A3
:10D0A0005A734823FB185A7B0F210A40111C102287
:10D0B0000A435A734823FB189A7B0F218A43111C99
:10D0C00001220A439A734823FB189A7B0F210A40D6
:10D0D000111C10220A439A734823FB18DA7B0F2194
:10D0E0008A43DA734823FB18DA7B0F210A40DA738C
:10D0F0004823FB181A7C0F218A43111C01220A4382
:10D100001A744823FB181A7C0F210A40111C1022A4
:10D110000A431A744823FB1800221A604823FB189C
:10D1200001221A714823FB1800229A604823FB1839
:10D1300064221A734823FA182C4B1100180002F0CD
:10D1400015FA0300FB67FB6F7B677B6F002B05D035
:10D150007B6F002200211800FBF7D8F90823FB1889
:10D16000402200211800FBF751F8214A0823FB1840
:10D170001100180003F0E7FB0823FB183C22995C20
:10D180000F208143081C0121014399540823FB18F7
:10D190003C22995C0F200140081C10210143995446
:10D1A0000823FB183D22995C0F20814399540823E2
:10D1B000FB183D22995C0F20014099540823FB186D
:10D1C000180002F07DFE0300FB67FB6F3B673B6FBF
:10D1D000002B05D03B6F002200211800FBF796F9C9
:10D1E000C046BD4620B080BDF8220020E0220020CD
:10D1F000BC2B020080B500AF1D4B51221A601C4BA6
:10D2000064225A601A4B01229A60194B01221A7348
:10D21000174A184B11001800FCF76AF9164B8C22BC
:10D220001A60154B962252005A60134B0A229A60DC
:10D23000114B00221A73104A104B11001800FCF712
:10D2400057F90F4B64221A600D4BFA2252005A60B4
:10D250000B4B01229A600A4B00221A73084A094BB1
:10D2600011001800FCF744F9C046BD4680BDC04619
:10D270004823002058230020602300207023002032
:10D28000782300208823002080B586B000AF29488D
:10D2900080235B0200221900FCF7C8F803007B61C1
:10D2A0007B693B613B69002B05D03B690022002173
:10D2B0001800FBF72BF9204880231B0200221900DD
:10D2C000FCF7B4F803007B617B69FB60FB68002B13
:10D2D00005D0FB68002200211800FBF717F9174B57
:10D2E000174900221800FCF7A1F803007B617B6955
:10D2F000BB60BB68002B05D0BB6800220021180072
:10D30000FBF704F90F48A0239B0200221900FCF749
:10D310008DF803007B617B697B607B68002B05D007
:10D320007B68002200211800FBF7F0F8C046BD46DC
:10D3300006B080BD90230020B0230020D023002021
:10D3400066260000F023002080B584B000AF78602E
:10D350007B681B78002B12D10B4B1B883B211800DC
:10D36000FFF72CFC0300FB60FB68BB60BB68002B75
:10D3700005D0BB68002200211800FBF7C7F8C046A3
:10D38000BD4604B080BDC0466020002080B582B09C
:10D3900000AF78607B68002200211800FBF7B6F828
:10D3A000C046BD4602B080BD80B58AB000AF3B1D0F
:10D3B0001C2200211800FAF729FF3B1D00221A60E9
:10D3C0003B1DA02292025A603B1DF02212039A607C
:10D3D0003B1D03221A73114B9A893B1DDA813B1DB9
:10D3E00000221A743B1D0E4A5A613B1D0D4A9A6178
:10D3F0003B1D180002F02CFA03007B627B6A3B6243
:10D400003B6A002B05D03B6A002200211800FBF785
:10D410007DF8C046BD460AB080BDC046F822002057
:10D4200049D301008DD3010080B584B000AF002046
:10D43000FFF756F90300FB60FB68BB60BB68002B7D
:10D4400005D0BB68002200211800FBF75FF8FFF74A
:10D450002DFB0300FB60FB687B607B68002B05D025
:10D460007B68002200211800FBF750F8FFF7BAFB99
:10D470000300FB60FB683B603B68002B05D03B680A
:10D48000002200211800FBF741F8C046BD4604B059
:10D4900080BD80B584B000AF0200FB1D1A70FB1D7B
:10D4A0001B78002B13D0032B00D014E00220FFF7D1
:10D4B00017F90300FB60FB68BB60BB68002B09D059
:10D4C000BB68002200211800FBF720F802E0FFF7FC
:10D4D000ABFF00E0C046C046BD4604B080BD0000C2
:10D4E00080B584B000AF78607B681B88102B02D0B9
:10D4F000112B15D019E00720FFF7F2F80300FB60AD
:10D50000FB68BB60BB68002B05D0BB680022002114
:10D510001800FAF7FBFF7B689A88064B1A8004E034
:10D52000044B012252421A80C046C046BD4604B098
:10D5300080BDC0466020002080B582B000AF78601A
:10D540007B68180004F096FA7A680F4B11001800F7
:10D5500002F098FE7A680D4B1100180001F076FE7B
:10D560007B68180002F0BEFA7B681800FFF7B4FA77
:10D570007B681800FFF7B4FF7B68180001F0C4FC5B
:10D58000C046BD4602B080BDF8220020E022002047
:10D5900080B582B000AF78607B681800FDF7C6FDEB
:10D5A0007B68180001F054FDC046BD4602B080BD46
:10D5B00080B588B000AF2A4900234822082005F032
:10D5C0001DF80300FB61FB69BB61BB69002B05D043
:10D5D000BB69002200211800FAF798FF3B000822DF
:10D5E00000211800FAF712FE3B001A7801210A43C5
:10D5F0001A703B001800FFF7F1FA03007B617B69AA
:10D600003B613B69002B05D03B69002200211800DB
:10D61000FAF77CFF134B180005F036F803007B6126
:10D620007B69FB60FB68002B05D0FB6800220021B2
:10D630001800FAF76BFF0C4B180005F039F80300DF
:10D640007B617B69BB60BB68002B05D0BB68002297
:10D6500000211800FAF75AFFC046BD4608B080BD49
:10D66000E425002039D5010091D5010080B586B0B0
:10D6700000AF0200FB1D1A70FB1D1B78072B1ED08C
:10D680000A2B02D0042B03D02FE0FFF7CDFE2CE0B5
:10D69000184B1B8813211800FFF790FA03007B61D9
:10D6A0007B69082B1ED07B693B613B69002B19D03D
:10D6B0003B69002200211800FAF728FF12E001F070
:10D6C000F9FC03007B617B69082B0DD07B69FB6053
:10D6D000FB68002B08D0FB68002200211800FAF735
:10D6E00015FF01E0C04600E0C046C046BD4606B09A
:10D6F00080BDC0466020002080B586B000AFF860D5
:10D70000B9607A607B687B617B69002B05D07B699F
:10D71000002200211800FAF7F9FE00231800BD4688
:10D7200006B080BD80B58AB000AF0200FB1D1A7044
:10D730001423FB18FA1D12781A70FDF773FE03000C
:10D740007B627B6A3B623B6A002B05D03B6A00220E
:10D7500000211800FAF7DAFE1423FB18180004F071
:10D7600019F803007B627B6AFB61FB69002B05D023
:10D77000FB69002200211800FAF7C8FE0823FB18F5
:10D780000533052200211800FAF740FD0823FB1895
:10D790005A7901210A435A710823FB185A79022148
:10D7A0008A435A710823FB185A791C218A43111C99
:10D7B0000C220A435A710823FB185A7920218A4304
:10D7C0005A710823FB1807229A710823FB181022AC
:10D7D000DA710823FB180F4A1A600823FB1801228C
:10D7E0001A710823FA180C4B1100180004F082F883
:10D7F00003007B627B6ABB61BB69002B05D0BB6900
:10D80000002200211800FAF781FEC046BD460AB08A
:10D8100080BDC046F9D601001024002080B59CB020
:10D8200002AF2823FB18382200211800FAF7EEFC7B
:10D830002823FB1802221A702823FB1801229A7051
:10D840002823FB180622DA702823FB1803221A82E9
:10D850002823FB18164A5A613B1D180024231A007E
:10D860000021FAF7D3FC3B1D01221A733B1D9622BF
:10D8700052001A613B1DB4225A610E493A1D2823F9
:10D88000F818002300930B00002101F081F8030039
:10D890007B667B6E3B663B6E002B05D03B6E0022A9
:10D8A00000211800FAF732FEC046BD461AB080BD0E
:10D8B0006420002093D4010080B586B000AF78606A
:10D8C000194B1A491A000320FEF726FF03007B615B
:10D8D0007B693B613B69002B05D03B69002200213D
:10D8E0001800FAF713FE0B23FB1819000020FFF7AE
:10D8F0003BF903007B617B69FB60FB68002B05D073
:10D90000FB68002200211800FAF700FE0B23FB1829
:10D910001B78023B5A425341DAB27B681A70C04608
:10D92000BD4606B080BDC0466DD60100CD0C0000DE
:10D9300080B582B000AFFFF759F903007B607B68C8
:10D940003B603B68002B05D03B680022002118009B
:10D95000FAF7DCFDC046BD4602B080BD80B584B09C
:10D9600000AFFFF735FAFB1D1800FFF7A5FFFFF723
:10D970001FFEFB1D1B781800FFF7D4FEFFF7A0FA6F
:10D98000FFF74CFFFFF708FBFFF734FCFFF70CFD38
:10D99000FFF77AFC032001F0F9F80300FB60FB6855
:10D9A000BB60BB68002B05D0BB68002200211800BB
:10D9B000FAF7ACFDFFF7BCFFFCE771DF7047C0462C
:10D9C000180072DF7047C046180079DF7047C04604
:10D9D00018007DDF7047C046180065DF7047C046FD
:10D9E000180080B582B000AF02003960BB1D1A80FC
:10D9F000BB1D1B88DAB23B681A703B680133BA1D45
:10DA00001288120A92B2D2B21A7002231800BD46CE
:10DA100002B080BD80B586B000AFF860B9607A60B2
:10DA20001A00BB1C1A807B681B8812331A00BB1CAF
:10DA30001B889A4201D90C2340E07B681B881A009E
:10DA4000BB689B1811221A707B681B8801339AB23D
:10DA50007B681A807B681B881A00BB689B181022A1
:10DA60001A707B681B8801339AB27B681A8017236F
:10DA7000FB180F221A701BE07B681B881A00BB681A
:10DA80009B181722BA18127852B2F9688A5C1A7079
:10DA90001723FB181B785BB2DBB2013BDAB217230A
:10DAA000FB181A707B681B8801339AB27B681A8056
:10DAB0001723FB181B787F2BDED900231800BD46E7
:10DAC00006B080BD80B584B000AFB9607A6019003F
:10DAD0000F23FB18021C1A700C23FB180A1C1A8057
